:100000000C9462000C948A000C948A000C948A0070
:100010000C948A000C948A000C948A000C948A0038
:100020000C948A000C948A000C948A000C948A0028
:100030000C948A000C94F4040C948A000C948A00AA
:100040000C94AA040C948A000C9478040C94520426
:100050000C948A000C948A000C948A000C948A00F8
:100060000C948A000C948A0008000000BE92244977
:10007000123EABAAAA2ABECDCCCC4C3E00000080DA
:10008000BEABAAAAAA3E00000000BF000000803F4D
:100090000000000000084178D3BB4387D1133D190D
:1000A0000E3CC3BD4282AD2B3E68EC8276BED98F3A
:1000B000E1A93E4C80EFFFBE01C4FF7F3F0000007E
:1000C00000001B0511241FBECFEFD8E0DEBFCDBF5F
:1000D00022E0ACE2B1E001C01D92AD35B207E1F71C
:1000E00011E0A0E0B1E0E2E0F4E202C005900D9280
:1000F000AC32B107D9F710E0C2E6D0E004C02197D6
:10010000FE010E94E511C136D107C9F70E945A05C8
:100110000C94FF110C940000EAE7F1E0A089B1898A
:1001200082E08C93A485B5851C92A685B7858FEC5B
:100130008C93108EA489B58986E08C93A289B389AB
:100140008C9180618C93A289B3898C9188608C9307
:10015000A289B3898C9180688C930288F389E02D01
:1001600080818F7D80830895672B79F58A30910592
:10017000D8F4FC01E254FF4F0C94E511C800CC0008
:10018000D000D500D900DB00DD00DF00E100E30096
:1001900086E085B988E007C087E485B988EC03C0AC
:1001A00085E085B988E28BB9089585E085B988E84E
:1001B000FACF84E4F2CF84E8F9CF84E8EACF86E08E
:1001C000ECCF84E0E6CF84E0F1CF8A30910560F790
:1001D000FC01E351FF4F0C94E511F700F900FB001F
:1001E000FD00FF00010103010501070109018EE087
:1001F000D0CF8FE4D2CF8DE0D4CF8DE0D7CF8CE4B9
:10020000CCCF8CE8D3CF8CE8C4CF8EE0C6CF8CE0C7
:10021000C0CF8CE0CBCFCF92DF92EF92FF920F93C3
:100220001F932FB7F894C0907601D0907701E0909B
:100230007801F09079012FBF6C0D7D1D8E1D9F1DE3
:100240004FB7F894009176011091770120917801D1
:10025000309179014FBF0C151D052E053F0528F083
:10026000601771078207930758F71F910F91FF904E
:10027000EF90DF90CF900895AF92BF92CF92DF9230
:10028000EF92FF920F931F93CF93DF936C017B014B
:100290008B01040F151FEB015E01AE18BF08C017DC
:1002A000D10759F06991D601ED91FC910190F0814F
:1002B000E02DC6010995892B79F7C501DF91CF9112
:1002C0001F910F91FF90EF90DF90CF90BF90AF9074
:1002D0000895FC01538D448D252F30E0842F90E04C
:1002E000821B930B541710F0CF9608950197089531
:1002F000FC01918D828D981761F0A28DAE0FBF2FFA
:10030000B11D5D968C91928D9F5F9F73928F90E04F
:1003100008958FEF9FEF0895FC01918D828D9817BE
:1003200031F0828DE80FF11D858D90E008958FEFFB
:100330009FEF0895FC01918D228D892F90E0805CC4
:100340009F4F821B91098F73992708958AE791E047
:100350000E949A0121E0892B09F420E0822F089560
:1003600080E090E0892B29F00E94A60181110C9475
:1003700000000895FC01A48DA80FB92FB11DA35A48
:10038000BF4F2C91848D90E001968F739927848FB5
:10039000A689B7892C93A089B1898C9183708064D8
:1003A0008C93938D848D981306C00288F389E02D79
:1003B00080818F7D80830895EF92FF920F931F932A
:1003C000CF93DF93EC0181E0888F9B8D8C8D981308
:1003D0001AC0E889F989808185FF15C09FB7F89414
:1003E000EE89FF896083E889F98980818370806460
:1003F00080839FBF81E090E0DF91CF911F910F91AB
:10040000FF90EF900895F62E0B8D10E00F5F1F4FB9
:100410000F731127E02E8C8D8E110CC00FB607FCC8
:10042000FACFE889F989808185FFF5CFCE010E9456
:10043000BA01F1CFEB8DEC0FFD2FF11DE35AFF4F09
:10044000F0829FB7F8940B8FEA89FB8980818062E4
:10045000CFCFCF93DF93EC01888D8823B9F0AA89A1
:10046000BB89E889F9898C9185FD03C0808186FD6F
:100470000DC00FB607FCF7CF8C9185FFF2CF8081BE
:1004800085FFEDCFCE010E94BA01E9CFDF91CF9178
:1004900008958E50806480937C0080917A008064FF
:1004A00080937A0080917A0086FDFCCF809178005D
:1004B0009091790008953FB7F8948091320190911E
:1004C0003301A0913401B091350126B5A89B05C038
:1004D0002F3F19F00196A11DB11D3FBFBA2FA92FC3
:1004E000982F8827BC01CD01620F711D811D911DC0
:1004F00042E0660F771F881F991F4A95D1F708952C
:100500008091630180688093630160916A017091BA
:100510006B0180916C0190916D0120E030E048E129
:1005200051E40E943B1187FD22C0809163018062EB
:100530008093630180915A018130C9F480916301F5
:100540008260809363018091630180618093630185
:10055000809163018860809363018091630184606E
:1005600080936301809159018260809359010895BD
:100570008230910509F451C08330910509F4CAC055
:100580006A307105D8F4FB01E853FD4F0C94E51176
:10059000D202D602DA02FC020003020305030703BB
:1005A00009030B0326E025B924E007C027E425B999
:1005B00024EC03C025E025B924E22BB941305105D4
:1005C00009F03AC18230910509F447C1039709F453
:1005D00056C16A30710508F02FC1FB01EE50FD4F86
:1005E0000C94E5111004140418041D0421042304C0
:1005F0002504270429042B0425E025B924E8DDCFB0
:1006000024E4D5CF24E825B9D8CF24E8CCCF26E000
:10061000CECF24E0F8CF24E0F0CF6A30710570F639
:10062000FB01EB5EFC4F0C94E5111F032B0337031A
:1006300043034F03590364036E037803810382E08D
:1006400085B988E08BB94130510509F0F5C08AE0E1
:1006500085B988E0F0C083E485B988EC8BB9413076
:10066000510509F0E9C08BE485B988ECE4C081E06C
:1006700085B988E28BB94130510509F0DDC089E0C8
:1006800085B988E2D8C081E085B988E88BB9413066
:10069000510509F0D1C089E085B988E8CCC080E473
:1006A00085B988EC8BB94130510509F0C5C088E4A3
:1006B000DBCF80E885B988E88BB94130510509F076
:1006C000BBC088E885B9B7C080E885B988E08BB938
:1006D0004130510509F0B0C088E8BACF82E085B951
:1006E00088EC8BB94130510509F0A6C08AE0BCCF37
:1006F00015B888E08BB94130510509F09DC088E0FC
:10070000E1CF15B888E88BB94130510509F094C0A4
:1007100088E0C2CF6B30710508F050CFFB01ED5679
:10072000FC4F0C94E5119E03AA03B603C203CE034B
:10073000D803E103EA03F303FC03050486E085B96B
:1007400080E18BB94130510509F076C08EE085B962
:1007500080E171C087E485B980ED8BB941305105E6
:1007600009F06AC08FE485B980ED65C085E085B980
:1007700080E38BB94130510509F05EC08DE085B949
:1007800080E359C085E085B980E98BB941305105D6
:1007900009F052C08DE085B980E94DC084E485B987
:1007A00080ED8BB94130510509F046C08CE4DBCFB8
:1007B00084E885B980E98BB941305105E9F58CE8C9
:1007C000EACF84E885B980E18BB941305105A1F5C4
:1007D0008CE8BDCF86E085B980ED8BB941305105FD
:1007E00059F58EE0C0CF84E085B980E18BB9413006
:1007F000510511F58CE0ABCF84E085B980E98BB968
:1008000041305105C9F48CE0C6CF85EC85B980EF45
:100810008BB94130510581F48DEC85B980EF0BC067
:100820008EE085B984E007C08FE485B984EC03C00D
:100830008DE085B984E28BB908958DE085B984E8AF
:10084000FACF8CE4F2CF8CE8F9CF8CE8EACF8EE0D7
:10085000ECCF8CE0E6CF8CE0F1CF6A30710560F729
:10086000FB01EB5CFB4F0C94E511270333033F03C3
:100870004B03570361036C0376037F0388036B30DC
:100880007105D0F6FB01E95BFB4F0C94E511A60363
:10089000B203BE03CA03D603DF03E803F103FA037E
:1008A00003040C041F920F920FB60F9211242F9382
:1008B0003F934F935F936F937F938F939F93AF93E8
:1008C000BF93EF93FF938AE791E00E94BA01FF91F3
:1008D000EF91BF91AF919F918F917F916F915F91B8
:1008E0004F913F912F910F900FBE0F901F90189531
:1008F0001F920F920FB60F9211242F938F939F93F5
:10090000EF93FF93E0918A01F0918B018081E09158
:100910009001F091910182FD1BC090818091930123
:100920008F5F8F7320919401821741F0E0919301C2
:10093000F0E0E658FE4F958F80939301FF91EF9181
:100940009F918F912F910F900FBE0F901F90189530
:100950008081F4CF1F920F920FB60F9211242F9324
:100960003F938F939F93AF93BF9380917601909124
:100970007701A0917801B09179013091310123E0A4
:10098000230F2D3758F50196A11DB11D209331017C
:100990008093760190937701A0937801B0937901C9
:1009A0008091320190913301A0913401B0913501D1
:1009B0000196A11DB11D8093320190933301A09344
:1009C0003401B0933501BF91AF919F918F913F91C9
:1009D0002F910F900FBE0F901F90189526E8230FB0
:1009E0000296A11DB11DD2CF1F920F920FB60F928A
:1009F00011242F933F934F935F936F937F938F9324
:100A00009F93AF93BF93EF93FF93E0913C01F091DD
:100A10003D010995FF91EF91BF91AF919F918F910A
:100A20007F916F915F914F913F912F910F900FBEEA
:100A30000F901F901895EAE7F1E01382128288EE7A
:100A400093E0A0E0B0E084839583A683B78385E03C
:100A500091E09183808385EC90E09587848784EC96
:100A600090E09787868780EC90E0918B808B81EC7B
:100A700090E0938B828B82EC90E0958B848B86EC5C
:100A800090E0978B868B118E128E138E148EE7E179
:100A9000F2E016821782108611861286138614865B
:100AA000158616861786108A118A128A138A148A66
:100AB000158A0895789484B5826084BD84B5816078
:100AC00084BD85B5826085BD85B5816085BD809119
:100AD0006E00816080936E00109281008091810091
:100AE0008260809381008091810081608093810089
:100AF000809180008160809380008091B10084604B
:100B00008093B1008091B00081608093B0008091AB
:100B10007A00846080937A0080917A00826080936A
:100B20007A0080917A00816080937A0080917A00C7
:100B3000806880937A001092C1001092590210923E
:100B40005A0210925B0210925C02109219021092EB
:100B50001A0210921B0210921C0268EB7BE080E0EC
:100B600090E00E940B010E945B024B015C0168EE69
:100B7000C62E63E0D62EE12CF12C0E945B02681990
:100B800079098A099B09683E734081059105A8F39C
:100B900021E0C21AD108E108F10888EE880E83E04E
:100BA000981EA11CB11CC114D104E104F10429F761
:100BB0000E948C002FB7F894809176019091770174
:100BC000A0917801B09179012FBF80931902909381
:100BD0001A02A0931B02B0931C0240E150E063E1B3
:100BE00071E08AE791E00E943C016AE070E080E0F9
:100BF00090E00E940B01C1E0C0932D022FB7F89442
:100C00008091760190917701A0917801B09179015E
:100C10002FBF8093190290931A02A0931B02B093E6
:100C20001C0246E050E064E271E08AE791E00E9435
:100C30003C0184B18F6C84B9389A8AB18C6F8AB9BF
:100C4000409A8BB18BB91092800080E18093810033
:100C500082E080933A018FB780933B01F89488EC4F
:100C600092E39093390180933801909387008093A9
:100C7000860080913B018FBF80918100887F8093A7
:100C800081009091810020913A01922B90938100F4
:100C900080E892E090933D0180933C01C0936F0007
:100CA00080918100822B809381000E948C0085E1DD
:100CB0000E944902BC01990F880B990B0E94C80E33
:100CC0006093720170937301809374019093750126
:100CD0008FE00E944902BC01990F880B990B0E947A
:100CE000C80E60936E0170936F01809370019093B2
:100CF000710160916E0170916F018091700190910E
:100D0000710120E030E040EA50E40E94270F20E02B
:100D100030E040E85AE30E94270F2DEC3CEC4CE415
:100D20005EE30E94931060936A0170936B0180935D
:100D30006C0190936D01209172013091730140918B
:100D400074015091750160E070E080E894E40E94C5
:100D5000931020E030E040E85FE30E94261020E09E
:100D600030E44CE156E40E94270F0E9448116B01C9
:100D70007C0129E332EC4AE054E30E94270FA701EB
:100D800096010E94270FA70196010E94270F4B0191
:100D90005C0129E03AEA47E859E3C701B6010E943D
:100DA000270F2BE932E044E65AE30E9427109B010B
:100DB000AC01C501B4010E9427109B01AC0160E0A9
:100DC00070E080E89FE30E94931023E333E948E852
:100DD00053E40E9426106093640170936501809330
:100DE00066019093670181E090E00E94E50F909387
:100DF000600180935F0181E090E00E94E50F909395
:100E00005E0180935D0184E190E00E94E50F909384
:100E10005C0180935B018EE190E00E94E50F90936E
:100E20003701809336018091360190913701019707
:100E3000B1F18EEE92E09093600180935F0189EEB4
:100E400092E090935E0180935D0189E090E0909341
:100E50005C0180935B0181E090E090933701809387
:100E6000360160915F01709160010E94F10F609105
:100E70005D0170915E018AE090E00E94F10F609147
:100E80005B0170915C0184E190E00E94F10F609140
:100E90003601709137018EE190E00E94F10F58EE1B
:100EA000252E53E0352ECAE0D0E004E610E0EE2413
:100EB000E39425ECD22E30EFF32E4DECC42E85E1D9
:100EC0000E944902BC01990F880B990B0E94C80E21
:100ED0006093720170937301809374019093750114
:100EE0008FE00E944902BC01990F880B990B0E9468
:100EF000C80E60936E0170936F01809370019093A0
:100F0000710160916A0170916B0180916C01909107
:100F10006D0120E030E040E251E40E94270F0E9482
:100F200005114B0180916901811105C01092680182
:100F30005A985B985C9880916901813009F051C0A2
:100F400080910001882309F433C4C401B1010E94D7
:100F5000D1115C0120916801BE010E94D111BC0138
:100F600050E040E0222311F041E050E081E090E0C9
:100F70000E94B8028FE99FE00197F1F700C00000DE
:100F800020916801C501BE010E94D111CB01BE01B3
:100F90000E94D111BC0150E040E0222311F041E059
:100FA00050E082E090E00E94B8028FE99FE0019754
:100FB000F1F700C00000C501B8010E94D111809175
:100FC000680150E040E0882311F041E050E083E008
:100FD00090E00E94B8028FE99FE00197F1F700C00E
:100FE000000080916901823009F06BC0609172014C
:100FF00070917301809174019091750120E030E04F
:10100000A9010E94C10E882309F4DDC36091640127
:1010100070916501809166019091670120E030E058
:1010200040E251E40E94270F0E940511CB01B1015B
:101030000E94D1115C01809168018111BDC3C5017D
:10104000BE010E94D11150E040E0BC0181E090E07F
:101050000E94B8028FE99FE00197F1F700C00000FD
:1010600020916801C501BE010E94D111CB01BE01D2
:101070000E94D111BC0150E040E0222311F041E078
:1010800050E082E090E00E94B802C501B8010E94E1
:10109000D1118FE99FE00197F1F700C00000809126
:1010A000680150E040E0882311F041E050E083E027
:1010B00090E00E94B8028FE99FE00197F1F700C02D
:1010C000000080916901833089F58091630186FF7A
:1010D0008EC38091610190916201019690936201AB
:1010E000809361018937910548F0809163018F7B7E
:1010F00080936301109262011092610180916801F6
:10110000811164C384E485B988E48BB98FE99FE0D9
:101110000197F1F700C0000084E885B984E28BB93B
:101120008FE99FE00197F1F700C00000809169010D
:10113000843089F58091630186FFFBC38091610152
:1011400090916201019690936201809361018937C9
:10115000910548F0809163018F7B80936301109229
:10116000620110926101809168018111D1C386EC06
:1011700085B988E28BB98FE99FE00197F1F700C04C
:10118000000084E885B984E28BB98FE99FE001977C
:10119000F1F700C0000080916901853009F042C07C
:1011A00080915B0190915C01BB24B394B80E809157
:1011B0006801811153C484E485B98BB98FE99FE03C
:1011C0000197F1F700C00000209168018B2D6AE0C3
:1011D0000E94C511892F90E070E060E0222311F099
:1011E00061E070E00E94B4008FE99FE00197F1F7A1
:1011F00000C00000209168018B2D6AE00E94C5119B
:10120000682F70E050E040E0222311F041E050E010
:1012100083E090E00E94B8028FE99FE00197F1F728
:1012200000C0000095E68916910454F45A985B9822
:101230005C981092680110925A0110926901409ACC
:101240008091630187FF0FC0809163018F77809346
:10125000630180916801811101C02B988091680120
:10126000813009F42B9A8091630185FF41C0809100
:1012700063018F7D8093630186B1847080934D01FB
:1012800090914D0180914C019813FDC380914B01C9
:101290008F5F80934B01882359F110924B0180910D
:1012A0004C0182FDEAC38091590185FD21C08091E6
:1012B000590180628093590110924A0180915A012C
:1012C0008F5F80935A01823010F010925A01809102
:1012D0005A01882309F4C6C3813051F4809369010F
:1012E000109255011092540110924F0110924E012C
:1012F0008091630184FF3DC0809163018F7E809364
:10130000630186B188708093490190914901809171
:1013100048019813DFC3809147018F5F8093470195
:10132000882339F1109247018091480183FDCCC395
:101330008091590184FD1DC0809159018061809385
:10134000590110924601809169018F5F8093690174
:10135000863010F0E092690180916901833009F4D0
:10136000ABC308F097C3813009F49DC3823009F400
:101370009AC38091630182FF63C0809163018B7F78
:101380008093630186B180718093450190914501FE
:101390008091440198131EC4809143018F5F809314
:1013A0004301882309F44CC0109243018091440109
:1013B00084FD0AC4809142018F5F8093420188308E
:1013C00038F010924201809159018B7F809359012E
:1013D0008091590182FD34C08091590184608093CD
:1013E00059011092420180916901843009F48BC344
:1013F000853009F4BBC3833019F51092580181E0A0
:1014000090E00E94E50F9093600180935F018091CE
:101410005F01909160018F3B91050CF062C3809158
:101420005F01909160010A969093600180935F0143
:1014300060915F017091600181E090E00E94EB0F8C
:101440008091630183FF6FC080916301877F8093E8
:10145000630186B180728093410190914101809136
:10146000400198132BC480913F018F5F80933F010F
:10147000882309F458C010923F018091400185FDF6
:1014800017C480913E018F5F80933E01883038F011
:1014900010923E0180915901877F8093590180917C
:1014A000590183FD40C080915901886080935901A2
:1014B00010923E0180916901843009F498C385300F
:1014C00009F4C8C3833079F51092580181E090E0A7
:1014D0000E94E50F9093600180935F0180915F010E
:1014E00090916001893C91050CF07BC380915F0174
:1014F000909160010A979093600180935F018091C1
:101500005F019091600197FF06C080E293E09093A5
:10151000600180935F0160915F017091600181E0E3
:1015200090E00E94EB0F8091630181FF14C18091D4
:1015300063018D7F809363018091560190915701E3
:101540009C012F5F3F4F3093570120935601069720
:1015500008F47EC060916E0170916F0180917001FE
:101560009091710120E030E040EA50E40E94270FA2
:1015700020E030E040E85AE30E94270F2DEC3CECDD
:101580004CE45EE30E94931060936A0170936B01D8
:1015900080936C0190936D01109257011092560147
:1015A0002091720130917301409174015091750145
:1015B00060E070E080E894E40E94931020E030E066
:1015C00040E85FE30E94261020E030E44CE156E45E
:1015D0000E94270F0E9448114B015C0129E332EC65
:1015E0004AE054E30E94270FA50194010E94270FAF
:1015F000A50194010E94270F2B013C0129E03AEA42
:1016000047E859E3C501B4010E94270F2BE932E0F6
:1016100044E65AE30E9427109B01AC01C301B201CA
:101620000E9427109B01AC0160E070E080E89FE31E
:101630000E94931023E333E948E853E40E94261004
:1016400060936401709365018093660190936701D4
:101650008090640190906501A0906601B090670150
:1016600081E090E00E94E50F9093600180935F011C
:101670008AE090E00E94E50F90935E0180935D0107
:1016800084E190E00E94E50F90935C0180935B0100
:1016900080915A01813009F057C020E030E040E2EB
:1016A00051E4C501B4010E94270F0E940511CB012E
:1016B000B1010E94D1118A3822E092076CF0409A61
:1016C0001092680125B12F6E25B95A985B985C98E5
:1016D00010925A011092690120915501211134C0D4
:1016E0007091540120915B0130915C012F5F3F4F5D
:1016F0006CE0629FA001639F500D112474171506C2
:101700000CF4E3C2409A1092680185B18F6E85B9DE
:101710005A985B985C9810925A01109269018091D6
:101720004E0190914F01019690934F0180934E018D
:101730008A3A9D4249F410924F0110924E018091D5
:1017400054018F5F8093540180915A01811103C02D
:10175000409A109268018091590181FF1CC08091CC
:1017600059018D7F8093590180916901833041F047
:1017700080916901843021F080916901853059F4AC
:10178000809158018F5F80935801893C20F0E0924E
:1017900069011092580180E090E0892B09F48FCB09
:1017A0000E94A601882309F482CB0E9400007FCB0F
:1017B0005A985B985C9815CCC501BE010E94D11166
:1017C00041E050E042CC1BB8E8B87BCC8091680186
:1017D000813009F0ABCC8CE485B988E48BB98FE912
:1017E0009FE00197F1F700C000008CE896CC2091B3
:1017F0005F0130916001C901885C910997FF42C087
:1018000098ECA92EB12CA21AB30A80916801D5B820
:10181000FBB8811134C08FE99FE00197F1F700C058
:10182000000020916801C501BE010E94D111CB01C9
:10183000BE010E94D111BC0150E040E0222311F012
:1018400041E050E081E090E00E94B8028FE99FE023
:101850000197F1F700C0000020916801C501B801AF
:101860000E94D111CB01BE010E94D11170E060E055
:10187000222311F061E070E00E94B40051CCC5B8A1
:10188000FBB8C9CFB1010E94D1115C012091680160
:10189000BE010E94D111BC0150E040E0222311F0B2
:1018A00041E050E081E090E00E94B8028FE99FE0C3
:1018B0000197F1F700C0000020916801C501BE0149
:1018C0000E94D111CB01BE010E94D111BC0150E098
:1018D00040E0222311F041E050E082E090E00E94DD
:1018E000B8028FE99FE00197F1F700C00000C50141
:1018F000B8010E94D1118091680150E040E0882336
:1019000011F041E050E083E090E00E94B80208CC82
:1019100080916801813009F03ECC8EEC85B988E277
:101920008BB98FE99FE00197F1F700C000008CE8C8
:1019300029CC20915D0130915E01C901885C91093B
:1019400097FF48C088ECA82EB12CA21AB30A809148
:101950006801D5B8FBB8811132C08FE99FE00197CB
:10196000F1F700C0000020916801C501BE010E948E
:10197000D111CB01BE010E94D111BC0150E040E069
:10198000222311F041E050E081E090E00E94B80293
:101990008FE99FE00197F1F700C0000020916801F6
:1019A000C501B8010E94D111CB01BE010E94D11125
:1019B000211108C070E060E00E94B400E6CBC5B819
:1019C000FBB8CBCF41E050E0BC0182E090E00E9448
:1019D000B802DBCBB1010E94D1115C0120916801FA
:1019E000BE010E94D111BC0150E040E0222311F061
:1019F00041E050E081E090E00E94B8028FE99FE072
:101A00000197F1F700C0000020916801C501BE01F7
:101A10000E94D111CB01BE010E94D111BC0150E046
:101A200040E0222311F041E050E082E090E00E948B
:101A3000B8028FE99FE00197F1F700C00000C501EF
:101A4000B8010E94D1118091680150E040E08823E4
:101A500011F041E050E083E090E0B9CF8CE485B92B
:101A600084E4ABCB1092690110926801409AE09235
:101A7000000185B18F6E85B93BCC809159018F7D76
:101A80008093590135CC80914D0180934C01109287
:101A90004B012ECC843081F0853009F06ACC8091E6
:101AA00063018F7B0CC0809163018F7B8093630106
:101AB0005A985B985C985DCC8091630180648093B8
:101AC000630110925801F4CF809159018F7E809369
:101AD00059014FCC809149018093480110924701F0
:101AE00048CC80915F0190916001019690936001D4
:101AF00080935F0180915F019091600161E273E0EA
:101B00000E94D11191CC109258018AE090E00E947D
:101B1000E50F90935E0180935D0180915D0190914E
:101B20005E018F3B910584F480915D0190915E018F
:101B30000A9690935E0180935D0160915D017091C2
:101B40005E018AE090E07ACC80915D0190915E0127
:101B5000019690935E0180935D0180915D0190916B
:101B60005E0161E273E00E94D111E3CF109258014F
:101B7000109254011092550110924F0110924E0193
:101B800084E190E00E94E50F90935C0180935B01FB
:101B900080915B0190915C01019690935C01809330
:101BA0005B0180915B0190915C016CE070E00E94B0
:101BB000D11190935C0180935B0160915B01709106
:101BC0005C0184E190E03ACC809159018B7F809355
:101BD000590136CC80914501809344011092430114
:101BE0002FCC80915F0190916001019790CC109271
:101BF00058018AE090E00E94E50F90935E01809387
:101C00005D0180915D0190915E01893C9105E4F454
:101C100080915D0190915E010A9790935E0180939F
:101C20005D0180915D0190915E0197FF06C080E2A9
:101C300093E090935E0180935D0160915D017091EE
:101C40005E018AE090E06DCC80915D0190915E0133
:101C50000197EFCF10925801109254011092550144
:101C600010924F0110924E0184E190E00E94E50F26
:101C700090935C0180935B0180915B0190915C018A
:101C8000019790935C0180935B0180915B0190913F
:101C90005C0197FF06C08BE090E090935C0180931D
:101CA0005B0160915B0170915C0184E190E039CC53
:101CB00080915901877F8093590135CC80914101F2
:101CC0008093400110923F012ECC709154012091DD
:101CD0005B0130915C012F5F3F4F629FA001639FCA
:101CE000500D1124741715060CF019CD20915F01C9
:101CF00030916001285C310982179307A4F080912C
:101D00005201909153010196909353018093520197
:101D10004F9708F404CD1092530110925201409A4B
:101D200010926801FCCC20915D0130915E01275C2E
:101D30003109821793070CF0F2CC809150019091F9
:101D40005101019690935101809350014F9708F4EF
:101D5000E6CC109251011092500160917201709185
:101D60007301809174019091750120E030E0A90128
:101D70000E94C10E882309F4D2CC4098E0926801F9
:101D8000CECC0E94030F08F481E00895E89409C0C6
:101D900097FB3EF490958095709561957F4F8F4F9E
:101DA0009F4F9923A9F0F92F96E9BB279395F695B4
:101DB000879577956795B795F111F8CFFAF4BB0F32
:101DC00011F460FF1BC06F5F7F4F8F4F9F4F16C096
:101DD000882311F096E911C0772321F09EE8872F20
:101DE000762F05C0662371F096E8862F70E060E0DC
:101DF0002AF09A95660F771F881FDAF7880F969555
:101E0000879597F90895990F0008550FAA0BE0E8F8
:101E1000FEEF16161706E807F907C0F012161306AC
:101E2000E407F50798F0621B730B840B950B39F4EC
:101E30000A2661F0232B242B252B21F408950A2652
:101E400009F4A140A6958FEF811D811D08950E9480
:101E50003A0F0C94AB0F0E949D0F38F00E94A40F14
:101E600020F0952311F00C94940F0C949A0F1124E8
:101E70000C94DF0F0E94BC0F70F3959FC1F3950F78
:101E800050E0551F629FF001729FBB27F00DB11DFE
:101E9000639FAA27F00DB11DAA1F649F6627B00D8E
:101EA000A11D661F829F2227B00DA11D621F739F77
:101EB000B00DA11D621F839FA00D611D221F749F85
:101EC0003327A00D611D231F849F600D211D822FCC
:101ED000762F6A2F11249F5750409AF0F1F08823F3
:101EE0004AF0EE0FFF1FBB1F661F771F881F915020
:101EF0005040A9F79E3F510580F00C94940F0C942C
:101F0000DF0F5F3FE4F3983ED4F3869577956795AE
:101F1000B795F795E7959F5FC1F7FE2B880F911D49
:101F20009695879597F9089597F99F6780E870E0EF
:101F300060E008959FEF80EC089500240A9416163F
:101F4000170618060906089500240A9412161306A7
:101F5000140605060895092E0394000C11F4882335
:101F600052F0BB0F40F4BF2B11F460FF04C06F5F51
:101F70007F4F8F4F9F4F089557FD9058440F551F27
:101F800059F05F3F71F04795880F97FB991F61F0FB
:101F90009F3F79F087950895121613061406551F72
:101FA000F2CF4695F1DF08C0161617061806991FDE
:101FB000F1CF86957105610508940895E894BB27D3
:101FC00066277727CB0197F90895A8E1B0E042E0B2
:101FD00050E00C94F80F0196272F0E9407100C94E4
:101FE00006100E941810272F0C941910DC01CB0149
:101FF000FC01F999FECF06C0F2BDE1BDF89A319619
:1020000000B40D9241505040B8F70895262FF99929
:10201000FECF92BD81BDF89A019700B4021639F047
:102020001FBA20BD0FB6F894FA9AF99A0FBE089518
:10203000262FF999FECF1FBA92BD81BD20BD0FB6E4
:10204000F894FA9AF99A0FBE019608955058BB2752
:10205000AA270E943E100C94AB0F0E949D0F38F0EF
:102060000E94A40F20F039F49F3F19F426F40C9439
:102070009A0F0EF4E095E7FB0C94940FE92F0E9461
:10208000BC0F58F3BA17620773078407950720F04F
:1020900079F4A6F50C94DE0F0EF4E0950B2EBA2F12
:1020A000A02D0B01B90190010C01CA01A00111245E
:1020B000FF27591B99F0593F50F4503E68F11A160A
:1020C000F040A22F232F342F4427585FF3CF46959B
:1020D00037952795A795F0405395C9F77EF41F16BD
:1020E000BA0B620B730B840BBAF09150A1F0FF0F87
:1020F000BB1F661F771F881FC2F70EC0BA0F621F73
:10210000731F841F48F4879577956795B795F79562
:102110009E3F08F0B0CF9395880F08F09927EE0FF7
:102120009795879508950E94A7100C94AB0F0E9475
:10213000A40F58F00E949D0F40F029F45F3F29F052
:102140000C94940F51110C94DF0F0C949A0F0E9471
:10215000BC0F68F39923B1F3552391F3951B550BED
:10216000BB27AA2762177307840738F09F5F5F4F6A
:10217000220F331F441FAA1FA9F335D00E2E3AF0A9
:10218000E0E832D091505040E695001CCAF72BD0C1
:10219000FE2F29D0660F771F881FBB1F2617370712
:1021A0004807AB07B0E809F0BB0B802DBF01FF2744
:1021B00093585F4F3AF09E3F510578F00C94940F7E
:1021C0000C94DF0F5F3FE4F3983ED4F38695779548
:1021D0006795B795F7959F5FC9F7880F911D9695FD
:1021E000879597F90895E1E0660F771F881FBB1F59
:1021F000621773078407BA0720F0621B730B840B06
:10220000BA0BEE1F88F7E09508950E940C116894B0
:10221000B1110C94DF0F08950E94C40F88F09F57EE
:1022200098F0B92F9927B751B0F0E1F0660F771FFA
:10223000881F991F1AF0BA95C9F714C0B13091F0F0
:102240000E94DE0FB1E008950C94DE0F672F782F07
:102250008827B85F39F0B93FCCF3869577956795B5
:10226000B395D9F73EF490958095709561957F4F21
:102270008F4F9F4F08950E94030F08F48FEF08952A
:1022800016F00C9490110C949A0F68940C94940F7F
:102290000E94C40FA8F39923C1F3AEF3DF93CF9349
:1022A0001F930F93FF92C92FDD2788232AF02197D0
:1022B000660F771F881FDAF720E030E040E85FEB19
:1022C0009FE3883920F0803E38F021968F770E9476
:1022D0002710E8E6F0E004C00E942710E5E9F0E0EE
:1022E0000E949E118B01BE01EC01FB2E6F577109FC
:1022F0007595771F880B990B0E94C80E28E132E76D
:1023000041E35FE30E943A0FAF2D9801AE01FF90C9
:102310000F911F91CF91DF910E943E100C94AB0F53
:102320009F3F31F0915020F4879577956795B79549
:10233000880F911D9695879597F90895DF93CF9310
:102340001F930F93FF92EF92DF927B018C016894B1
:1023500006C0DA2EEF010E943A0FFE01E894A59123
:102360002591359145915591A6F3EF010E943E10BC
:10237000FE019701A801DA9469F7DF90EF90FF90D2
:102380000F911F91CF91DF910895991B79E004C0BF
:10239000991F961708F0961B881F7A95C9F78095A4
:1023A000089597FB072E16F4009407D077FD09D007
:1023B0000E94EB1107FC05D03EF4909581959F4F4C
:1023C0000895709561957F4F0895EE0FFF1F05905A
:1023D000F491E02D0994AA1BBB1B51E107C0AA1F71
:1023E000BB1FA617B70710F0A61BB70B881F991FB6
:1023F0005A95A9F780959095BC01CD010895F89460
:02240000FFCF0C
:102402000100000000DC013C01690129029A017807
:10241200018C01564D4450565F317C315F564D441C
:0C24220050560A00564D4450525F000016
:107E0000112484B714BE81FFF0D085E080938100F7
:107E100082E08093C00088E18093C10086E0809377
:107E2000C20080E18093C4008EE0C9D0259A86E02C
:107E300020E33CEF91E0309385002093840096BBD3
:107E4000B09BFECF1D9AA8958150A9F7CC24DD24C4
:107E500088248394B5E0AB2EA1E19A2EF3E0BF2EE7
:107E6000A2D0813461F49FD0082FAFD0023811F036
:107E7000013811F484E001C083E08DD089C08234E0
:107E800011F484E103C0853419F485E0A6D080C0E4
:107E9000853579F488D0E82EFF2485D0082F10E0AE
:107EA000102F00270E291F29000F111F8ED06801E7
:107EB0006FC0863521F484E090D080E0DECF843638
:107EC00009F040C070D06FD0082F6DD080E0C81688
:107ED00080E7D80618F4F601B7BEE895C0E0D1E017
:107EE00062D089930C17E1F7F0E0CF16F0E7DF06D8
:107EF00018F0F601B7BEE89568D007B600FCFDCFD4
:107F0000A601A0E0B1E02C9130E011968C91119780
:107F100090E0982F8827822B932B1296FA010C0160
:107F200087BEE89511244E5F5F4FF1E0A038BF0790
:107F300051F7F601A7BEE89507B600FCFDCF97BE46
:107F4000E89526C08437B1F42ED02DD0F82E2BD052
:107F50003CD0F601EF2C8F010F5F1F4F84911BD097
:107F6000EA94F801C1F70894C11CD11CFA94CF0C13
:107F7000D11C0EC0853739F428D08EE10CD085E9AC
:107F80000AD08FE07ACF813511F488E018D01DD067
:107F900080E101D065CF982F8091C00085FFFCCF94
:107FA0009093C60008958091C00087FFFCCF809118
:107FB000C00084FD01C0A8958091C6000895E0E648
:107FC000F0E098E1908380830895EDDF803219F02E
:107FD00088E0F5DFFFCF84E1DECF1F93182FE3DFCA
:107FE0001150E9F7F2DF1F91089580E0E8DFEE27F6
:047FF000FF270994CA
:027FFE00040479
:0400000300007E007B
:00000001FF