:100000000C9462000C948A000C948A000C948A0070
:100010000C948A000C948A000C948A000C948A0038
:100020000C948A000C948A000C948A000C948A0028
:100030000C948A000C944A030C948A000C948A0055
:100040000C9400030C948A000C94CE020C94A80229
:100050000C948A000C948A000C948A000C948A00F8
:100060000C948A000C948A0008000000BE92244977
:10007000123EABAAAA2ABECDCCCC4C3E00000080DA
:10008000BEABAAAAAA3E00000000BF000000803F4D
:100090000000000000084178D3BB4387D1133D190D
:1000A0000E3CC3BD4282AD2B3E68EC8276BED98F3A
:1000B000E1A93E4C80EFFFBE01C4FF7F3F0000007E
:1000C0000000230D11241FBECFEFD8E0DEBFCDBF4F
:1000D00011E0A0E0B1E0E0E2F1E202C005900D9293
:1000E000A431B107D9F722E0A4E1B1E001C01D922B
:1000F000A330B207E1F710E0C2E6D0E004C02197D8
:10010000FE010E947410C136D107C9F70E94710325
:100110000C948E100C9400008A309105D8F4FC01E8
:10012000EC56FF4F0C9474109E00A200A600AB008A
:10013000AF00B100B300B500B700B90086E085B9E3
:1001400088E007C087E485B988EC03C085E085B9FD
:1001500088E28BB9089585E085B988E8FACF84E410
:10016000F2CF84E8F9CF84E8EACF86E0ECCF84E0F0
:10017000E6CF84E0F1CFAF92BF92CF92DF92EF92C1
:10018000FF920F931F93CF93DF936C017B018B0141
:10019000040F151FEB015E01AE18BF08C017D10791
:1001A00059F06991D601ED91FC910190F081E02D1B
:1001B000C6010995892B79F7C501DF91CF911F9170
:1001C0000F91FF90EF90DF90CF90BF90AF90089588
:1001D000FC01538D448D252F30E0842F90E0821B4D
:1001E000930B541710F0CF96089501970895FC01D2
:1001F000918D828D981761F0A28DAE0FBF2FB11D2A
:100200005D968C91928D9F5F9F73928F90E0089581
:100210008FEF9FEF0895FC01918D828D981731F03B
:10022000828DE80FF11D858D90E008958FEF9FEF8F
:100230000895FC01918D228D892F90E0805C9F4F65
:10024000821B91098F739927089584E291E00E949F
:10025000190121E0892B09F420E0822F089580E024
:1002600090E0892B29F00E94250181110C94000057
:100270000895FC01A48DA80FB92FB11DA35ABF4F3B
:100280002C91848D90E001968F739927848FA68995
:10029000B7892C93A089B1898C91837080648C93E9
:1002A000938D848D981306C00288F389E02D808198
:1002B0008F7D80830895EF92FF920F931F93CF93CA
:1002C000DF93EC0181E0888F9B8D8C8D98131AC091
:1002D000E889F989808185FF15C09FB7F894EE8978
:1002E000FF896083E889F9898081837080648083D5
:1002F0009FBF81E090E0DF91CF911F910F91FF9020
:10030000EF900895F62E0B8D10E00F5F1F4F0F73C7
:100310001127E02E8C8D8E110CC00FB607FCFACF82
:10032000E889F989808185FFF5CFCE010E943901E6
:10033000F1CFEB8DEC0FFD2FF11DE35AFF4FF08253
:100340009FB7F8940B8FEA89FB8980818062CFCFB9
:10035000CF93DF93EC01888D8823B9F0AA89BB89FC
:10036000E889F9898C9185FD03C0808186FD0DC0E7
:100370000FB607FCF7CF8C9185FFF2CF808185FF08
:10038000EDCFCE010E943901E9CFDF91CF910895E1
:100390008E50806480937C0080917A00806480938A
:1003A0007A0080917A0086FDFCCF80917800909150
:1003B000790008958091EE0180688093EE0160914C
:1003C000FB017091FC018091FD019091FE0120E004
:1003D00030E048E151E40E945D0F87FD22C080912A
:1003E000EE0180628093EE018091E5018130C9F4D5
:1003F0008091EE0182608093EE018091EE01806138
:100400008093EE018091EE0188608093EE018091EF
:10041000EE0184608093EE018091E401826080931C
:10042000E4010895FB018230910591F1039709F4ED
:100430005CC06A307105D0F4E05EFD4F0C9474101E
:100440002A022E02320237023B023D0240024202E1
:100450004402460286E085B984E007C087E485B996
:1004600084EC03C085E085B984E28BB9089585E00A
:1004700085B984E8FACF84E4F2CF84E885B9F5CF72
:1004800084E8E9CF86E0EBCF84E0F8CF84E0F0CFDA
:100490006A30710558F7E15BFD4F0C9474105902F6
:1004A0005D026102650269026B026D026F027102F8
:1004B000730282E085B988E0D8CF83E485B988ECFF
:1004C000D4CF81E085B988E2D0CF81E085B988E8D2
:1004D000CCCF80E4F3CF80E8F9CF80E8EBCF82E0A7
:1004E000EDCF15B8E8CF15B8F2CF6B30710508F035
:1004F000BDCFE358FD4F0C94741088028C0290021B
:10050000940298029A029C029E02A002A202A402F5
:1005100086E085B980E1A9CF87E485B980EDA5CFD4
:1005200085E085B980E3A1CF85E085B980E99DCFDD
:1005300084E4F3CF84E8F9CF84E8EBCF86E0EDCF15
:1005400084E0E7CF84E0F1CF85EC85B980EF8DCFF3
:100550001F920F920FB60F9211242F933F934F9338
:100560005F936F937F938F939F93AF93BF93EF931B
:10057000FF9384E291E00E943901FF91EF91BF91D6
:10058000AF919F918F917F916F915F914F913F912B
:100590002F910F900FBE0F901F9018951F920F92E2
:1005A0000FB60F9211242F938F939F93EF93FF9386
:1005B000E0913401F09135018081E0913A01F091B0
:1005C0003B0182FD1BC0908180913D018F5F8F7345
:1005D00020913E01821741F0E0913D01F0E0EC5D99
:1005E000FE4F958F80933D01FF91EF919F918F91E9
:1005F0002F910F900FBE0F901F9018958081F4CF10
:100600001F920F920FB60F9211242F933F938F9347
:100610009F93AF93BF9380911E0190911F01A09172
:100620002001B091210130911D0123E0230F2D37CE
:1006300058F50196A11DB11D20931D0180931E0147
:1006400090931F01A0932001B09321018091190183
:1006500090911A01A0911B01B0911C010196A11D5E
:10066000B11D8093190190931A01A0931B01B093BF
:100670001C01BF91AF919F918F913F912F910F904E
:100680000FBE0F901F90189526E8230F0296A11D0C
:10069000B11DD2CF1F920F920FB60F9211242F933C
:1006A0003F934F935F936F937F938F939F93AF93FA
:1006B000BF93EF93FF93E091C501F091C6010995B7
:1006C000FF91EF91BF91AF919F918F917F916F912A
:1006D0005F914F913F912F910F900FBE0F901F9000
:1006E0001895789484B5826084BD84B5816084BD9A
:1006F00085B5826085BD85B5816085BD80916E00C0
:10070000816080936E0010928100809181008260F0
:10071000809381008091810081608093810080912D
:1007200080008160809380008091B100846080931C
:10073000B1008091B00081608093B00080917A0018
:10074000846080937A0080917A00826080937A003E
:1007500080917A00816080937A0080917A0080682D
:1007600080937A001092C10084B18F6C84B9389A5A
:100770008AB18C6F8AB9409A8BB18BB91092800084
:1007800080E18093810022E02093C3018FB78093A2
:10079000C401F89488EC92E39093C2018093C10164
:1007A00090938700809386008091C4018FBF8091D1
:1007B0008100887F80938100909181003091C301F6
:1007C000932B909381008AED91E09093C6018093E2
:1007D000C50181E080936F0080918100832B80931D
:1007E0008100E0913401F09135012083E0913001E6
:1007F000F09131011082E0913201F09133018FECE0
:10080000808310923C01E0913801F091390186E03B
:100810008083E0913601F09137018081806180838F
:10082000E0913601F0913701808188608083E0910A
:100830003601F0913701808180688083E091360134
:10084000F091370180818F7D808385E10E94C8010E
:10085000BC01990F880B990B0E94AD0E6093F301B8
:100860007093F4018093F5019093F6018FE00E945C
:10087000C801BC01990F880B990B0E94AD0E6093C3
:10088000FF01709300028093010290930202609135
:10089000FF0170910002809101029091020220E01C
:1008A00030E040EA50E40E94B20F20E030E040E83F
:1008B0005AE30E94B20F2DEC3CEC4CE45EE30E9444
:1008C000030E6093FB017093FC018093FD019093F4
:1008D000FE012091F3013091F4014091F501509116
:1008E000F60160E070E080E894E40E94030E20E0EE
:1008F00030E040E85FE30E94910D20E030E44CE1FD
:1009000056E40E94B20F0E946A0F6B017C0129E33A
:1009100032EC4AE054E30E94B20FA70196010E9414
:10092000B20FA70196010E94B20F4B015C0129E0B2
:100930003AEA47E859E3C701B6010E94B20F2BE932
:1009400032E044E65AE30E94920D9B01AC01C501DE
:10095000B4010E94920D9B01AC0160E070E080E860
:100960009FE30E94030E23E333E948E853E40E9427
:10097000910D6093EF017093F0018093F1019093DA
:10098000F20181E090E00E94500D9093EB01809382
:10099000EA0181E090E00E94500D9093E90180937C
:1009A000E80184E190E00E94500D9093E70180936C
:1009B000E6018EE190E00E94500D90932301809318
:1009C000220180912201909123010197B1F18EEED5
:1009D00092E09093EB018093EA0189EE92E090938C
:1009E000E9018093E80189E090E09093E70180932A
:1009F000E60181E090E090932301809322016091D1
:100A0000EA017091EB010E945C0D6091E801709128
:100A1000E9018AE090E00E945C0D6091E60170912E
:100A2000E70184E190E00E945C0D609122017091E9
:100A300023018EE190E00E945C0DE8EE2E2EE3E0B3
:100A40003E2E04E610E0CAE0D0E05CECF52E64E057
:100A5000E62E9924939475EC872E8FE00E94C801AE
:100A6000BC01990F880B990B0E94AD0E6093FF019A
:100A70007093000280930102909302026091FB0147
:100A80007091FC018091FD019091FE0120E030E029
:100A900040E251E40E94B20F0E94750E6B018091FA
:100AA000FA01811105C01092F9015A985B985C987F
:100AB0008091FA01813009F056C0809100018823AD
:100AC00009F494C1C601B1010E9460105C018091DB
:100AD000F901813009F079C18091F7019091F80115
:100AE000892B09F072C12B9A8BB18BB98FE99FE0EA
:100AF0000197F1F700C000008091F901813039F4CD
:100B00008091F7019091F801892B09F468C1C50122
:100B1000BE010E946010CB01BE010E946010BC01AA
:100B200082E090E00E941202EFE9FFE03197F1F7D6
:100B300000C000008091F901813039F48091F70103
:100B40009091F801892B09F44EC1C501B8010E94AA
:100B5000601083E090E00E9412028FE99FE001970D
:100B6000F1F700C000008091FA01823009F076C0F0
:100B70006091F3017091F4018091F5019091F6017B
:100B800020E030E0A9010E94FE0D882309F43DC158
:100B90006091EF017091F0018091F1019091F2016B
:100BA00020E030E040E251E40E94B20F0E94750E56
:100BB000CB01B1010E9460105C018091F90181308C
:100BC00039F48091F7019091F801892B09F412C151
:100BD000C501BE010E946010BC0181E090E00E944E
:100BE0001202EFE9FFE03197F1F700C000008091B9
:100BF000F901813039F48091F7019091F801892B46
:100C000009F4FCC0C501BE010E946010CB01BE0109
:100C10000E946010BC0182E090E00E9412028FE905
:100C20009FE00197F1F700C000008091F901813049
:100C300039F48091F7019091F801892B09F4E2C011
:100C4000C501B8010E94601083E090E00E9412028A
:100C5000EFE9FFE03197F1F700C000008091FA0161
:100C6000833069F58091EE0186FFD2C08091EC015E
:100C70009091ED0101969093ED018093EC018937FD
:100C8000910548F08091EE018F7B8093EE011092E8
:100C9000ED011092EC0184E485B988E48BB98FE909
:100CA0009FE00197F1F700C0000084E885B984E275
:100CB0008BB9EFE9FFE03197F1F700C000008091B8
:100CC000FA01843069F58091EE0186FF5AC1809166
:100CD000EC019091ED0101969093ED018093EC0170
:100CE0008937910548F08091EE018F7B8093EE016A
:100CF0001092ED011092EC0186EC85B988E28BB977
:100D0000EFE9FFE03197F1F700C0000084E885B912
:100D100084E28BB98FE99FE00197F1F700C00000F2
:100D20008091FA01853041F58091E6019091E701CB
:100D30008F5F94E495B99BB9EFE9FFE03197F1F744
:100D400000C000006AE00E945410B82E892F90E085
:100D50000E948C008FE99FE00197F1F700C000002E
:100D60006B2D70E083E090E00E941202EFE9FFE05B
:100D70003197F1F700C00000FFE5CF16D1040CF069
:100D8000B8C15A985B985C981092F90181E090E0A4
:100D90009093F8018093F7011092E5011092FA0107
:100DA000409A2B988091EE0187FFD8C18091EE0187
:100DB0008F778093EE018091E501813021F480915D
:100DC000F9018111A7C12B98C9C1C501BE010E94BB
:100DD0006010BC0181E090E00E94120287CE2B9A45
:100DE0008BB18BB9A1CEF5B8EBB8B7CE5A985B985A
:100DF0005C98B9CE2B9A8BB18BB9F3CE2B9A8BB171
:100E00008BB90DCFF5B8EBB823CF1BB898B826CF68
:100E10002091EA013091EB01C901885C910997FFAB
:100E200059C048ECA42EB12CA21AB30A8091F90142
:100E3000813039F48091F7019091F801892B09F400
:100E40003FC085B880EF8BB98FE99FE00197F1F73C
:100E500000C000008091F901813031F48091F701E8
:100E60009091F801892B79F1C501BE010E946010B3
:100E7000CB01BE010E946010BC0181E090E00E94A5
:100E80001202EFE9FFE03197F1F700C00000809116
:100E9000F901813031F48091F7019091F801892BAB
:100EA000B1F0C501B8010E946010CB01BE010E94E3
:100EB00060100E948C008FE99FE00197F1F7FDCE52
:100EC0002B9A8BB1C0CF2B9A8BB18BB9DACFF5B8F7
:100ED000EBB8F1CFB1010E9460105C018091F90183
:100EE000813039F48091F7019091F801892B09F450
:100EF00040C0C501BE010E946010BC0181E090E0CD
:100F00000E941202EFE9FFE03197F1F700C0000004
:100F10008091F901813031F48091F7019091F801CD
:100F2000892B59F1C501BE010E946010CB01BE01A1
:100F30000E946010BC0182E090E00E9412028FE9E2
:100F40009FE00197F1F700C000008091F901813026
:100F500039F48091F7019091F801892B09F4B7CF0A
:100F6000C501B8010E94601083E090E00E94120267
:100F7000A2CF2B9A8BB18BB9C5CF2B9A8BB18BB9E2
:100F8000DECF2091E8013091E901C901885C910927
:100F900097FF5BC098ECA92EB12CA21AB30A8091DE
:100FA000F901813031F48091F7019091F801892B9A
:100FB000F1F185B880EF8BB9EFE9FFE03197F1F7F8
:100FC00000C000008091F901813031F48091F70177
:100FD0009091F801892B71F1C501BE010E9460104A
:100FE000CB01BE010E946010BC0181E090E00E9434
:100FF00012028FE99FE00197F1F700C00000809195
:10100000F901813031F48091F7019091F801892B39
:10101000A9F0C501B8010E946010CB01BE010E9479
:101020006010BC0182E090E00E94120209C02B9A7D
:101030008BB1C1CF2B9A8BB18BB9DBCFF5B8EBB8A5
:10104000EFE9FFE03197F1F769CEB1010E9460103E
:101050005C018091F901813031F48091F701909128
:10106000F801892BF1F1C501BE010E946010BC019D
:1010700081E090E00E9412028FE99FE00197F1F772
:1010800000C000008091F901813031F48091F701B6
:101090009091F801892B49F1C501BE010E946010B1
:1010A000CB01BE010E946010BC0182E090E00E9472
:1010B0001202EFE9FFE03197F1F700C000008091E4
:1010C000F901813039F48091F7019091F801892B71
:1010D00009F4B4CFC501B8010E94601083E090E02C
:1010E000A3CF2B9A8BB18BB9C7CF2B9A8BB18BB96E
:1010F000E0CF2FE5C216D10419F49092F90152CE37
:1011000082E6C816D1040CF44DCE1092F80110926C
:10111000F70148CE8091F901813001F58091F70106
:101120009091F801892BD1F42B9A8091C70190916D
:10113000C80101969093C8018093C7018536910537
:1011400068F02B981092F90181E090E09093F801FB
:101150008093F7011092C8011092C7018091EE01AF
:1011600085FF45C08091EE018F7D8093EE0186B1B1
:1011700084708093D8019091D8018091D701981301
:10118000D5C28091D6018F5F8093D601882379F1F3
:101190001092D6018091D70182FDC2C28091E401F4
:1011A00085FD25C08091E40180628093E401109266
:1011B000D5018091E5018F5F8093E501823010F0C9
:1011C0001092E5018091E501882309F49EC28130E7
:1011D00071F48093FA011092E0011092DF011092F5
:1011E000DA011092D9011092F8011092F701809162
:1011F000EE0184FF3DC08091EE018F7E8093EE0171
:1012000086B188708093D4019091D4018091D301EC
:101210009813B3C28091D2018F5F8093D20188234B
:1012200039F11092D2018091D30183FDA0C2809147
:10123000E40184FD1DC08091E40180618093E4019C
:101240001092D1018091FA018F5F8093FA0186306C
:1012500010F09092FA018091FA01833009F47FC274
:1012600008F06BC2813009F471C2823009F46EC299
:101270008091EE0182FF63C08091EE018B7F8093AD
:10128000EE0186B180718093D0019091D001809160
:10129000CF019813F2C28091CE018F5F8093CE016F
:1012A000882309F44CC01092CE018091CF0184FDB7
:1012B000DEC28091CD018F5F8093CD01883038F000
:1012C0001092CD018091E4018B7F8093E4018091A5
:1012D000E40182FD34C08091E40184608093E401E4
:1012E0001092CD018091FA01843009F45FC28530FB
:1012F00009F48FC2833019F51092E30181E090E088
:101300000E94500D9093EB018093EA018091EA01D5
:101310009091EB018F3B91050CF036C28091EA0170
:101320009091EB010A969093EB018093EA01609112
:10133000EA017091EB0181E090E00E94560D8091EE
:10134000EE0183FF6FC08091EE01877F8093EE01F5
:1013500086B180728093CC019091CC018091CB01B9
:10136000981303C38091CA018F5F8093CA018823B9
:1013700009F458C01092CA018091CB0185FDEFC2DB
:101380008091C9018F5F8093C901883038F0109235
:10139000C9018091E401877F8093E4018091E40199
:1013A00083FD40C08091E40188608093E401109245
:1013B000C9018091FA01843009F470C2853009F4C2
:1013C000A0C2833079F51092E30181E090E00E94A1
:1013D000500D9093EB018093EA018091EA01909186
:1013E000EB01893C91050CF04FC28091EA0190918C
:1013F000EB010A979093EB018093EA018091EA0157
:101400009091EB0197FF06C0E0E2F3E0F093EB016F
:10141000E093EA016091EA017091EB0181E090E0D4
:101420000E94560D8091EE0181FF42C18091EE0134
:101430008D7F8093EE018091E1019091E2019C010A
:101440002F5F3F4F3093E2012093E1010B9708F4A7
:10145000A5C06091FF0170910002809101029091FE
:10146000020220E030E040EA50E40E94B20F20E0A7
:1014700030E040E85AE30E94B20F2DEC3CEC4CE423
:101480005EE30E94030E6093FB017093FC01809366
:10149000FD019093FE018AE0D82E412C512C32019F
:1014A00085E10E94C801BC01990F880B990B0E942D
:1014B000AD0E9B01AC01C301B2010E94920D2B0144
:1014C0003C01DA94D110ECCF20E030E040E251E46E
:1014D0000E94030E6093F3017093F4018093F50171
:1014E0009093F6011092E2011092E1012091F30134
:1014F0003091F4014091F5015091F60160E070E007
:1015000080E894E40E94030E20E030E040E85FE3CE
:101510000E94910D20E030E44CE156E40E94B20FAD
:101520000E946A0F2B013C0129E332EC4AE054E3AC
:101530000E94B20FA30192010E94B20FA301920177
:101540000E94B20F5B016C0129E03AEA47E859E3D7
:10155000C301B2010E94B20F2BE932E044E65AE324
:101560000E94920D9B01AC01C601B5010E94920D33
:101570009B01AC0160E070E080E89FE30E94030EF5
:1015800023E333E948E853E40E94910D6093EF01AF
:101590007093F0018093F1019093F2014090EF017C
:1015A0005090F0016090F1017090F20181E090E0C4
:1015B0000E94500D9093EB018093EA018AE090E045
:1015C0000E94500D9093E9018093E80184E190E03E
:1015D0000E94500D9093E7018093E601D090E501C1
:1015E000F1E0DF125EC020E030E040E251E4C301F0
:1015F000B2010E94B20F0E94750ECB01B1010E9490
:1016000060108A3822E092070CF4B6C1409A10921A
:10161000F90121E030E03093F8012093F70125B182
:101620002F6E25B95A985B985C981092E50110923C
:10163000FA012091E001211134C07091DF01209165
:10164000E6013091E7012F5F3F4F6CE0629FA00100
:10165000639F500D1124741715060CF49CC1409A19
:101660001092F90185B18F6E85B95A985B985C9894
:101670001092E5011092FA018091D9019091DA015E
:1016800001969093DA018093D9018A3A9D4249F4F8
:101690001092DA011092D9018091DF018F5F80935F
:1016A000DF018091E501811103C0409A1092F90198
:1016B0008091E40181FF1CC08091E4018D7F8093C3
:1016C000E4018091FA01833041F08091FA01843085
:1016D00021F08091FA01853059F48091E3018F5F08
:1016E0008093E301893C20F09092FA011092E3018B
:1016F00080E090E0892B09F4B0C90E94250188237D
:1017000009F4A3C90E940000A0C91092FA01109226
:10171000F901409A9092000185B18F6E85B967CD2D
:101720008091E4018F7D8093E40161CD8091D801A7
:101730008093D7011092D6015ACD843081F0853044
:1017400009F096CD8091EE018F7B0CC08091EE0167
:101750008F7B8093EE015A985B985C9889CD80913D
:10176000EE0180648093EE011092E301F4CF80914A
:10177000E4018F7E8093E4017BCD8091D40180933E
:10178000D3011092D20174CD8091EA019091EB01C6
:1017900001969093EB018093EA018091EA01909188
:1017A000EB0161E273E00E946010BDCD1092E30195
:1017B0008AE090E00E94500D9093E9018093E80147
:1017C0008091E8019091E9018F3B910584F480912B
:1017D000E8019091E9010A969093E9018093E8016C
:1017E0006091E8017091E9018AE090E0A6CD8091D6
:1017F000E8019091E90101969093E9018093E80155
:101800008091E8019091E90161E273E00E9460102B
:10181000E3CF1092E3011092DF011092E0011092E9
:10182000DA011092D90184E190E00E94500D90936A
:10183000E7018093E6018091E6019091E70101962E
:101840009093E7018093E6018091E6019091E70192
:101850006CE070E00E9460109093E7018093E601D5
:101860006091E6017091E70184E190E066CD80919E
:10187000E4018B7F8093E40162CD8091D00180935D
:10188000CF011092CE015BCD8091EA019091EB01E6
:1018900001979093EB018093EA01BCCD1092E30194
:1018A0008AE090E00E94500D9093E9018093E80156
:1018B0008091E8019091E901893C9105E4F48091DF
:1018C000E8019091E9010A979093E9018093E8017A
:1018D0008091E8019091E90197FF06C080E293E0D2
:1018E0009093E9018093E8016091E8017091E9012A
:1018F0008AE090E095CD8091E8019091E90101970F
:10190000EFCF1092E3011092DF011092E0011092EC
:10191000DA011092D90184E190E00E94500D909379
:10192000E7018093E6018091E6019091E70101973C
:101930009093E7018093E6018091E6019091E701A1
:1019400097FF06C0EBE0F0E0F093E701E093E601DB
:101950006091E6017091E70184E190E061CD8091B2
:10196000E401877F8093E4015DCD8091CC01809379
:10197000CB011092CA0156CD9C012855324022332A
:10198000310508F056CED092F9012B9A1092F80149
:101990001092F7014ECE7091DF012091E601309157
:1019A000E7012F5F3F4F629FA001639F500D1124FD
:1019B000741715060CF060CE2091EA013091EB010E
:1019C000285C31098217930794F08091DD01909192
:1019D000DE0101969093DE018093DD014F9708F4BC
:1019E0004BCE1092DE011092DD01409A45CE20913F
:1019F000E8013091E901275C3109821793070CF067
:101A00003BCE8091DB019091DC0101969093DC014B
:101A10008093DB014F9708F42FCE1092DC011092D7
:101A2000DB016091F3017091F4018091F5019091D7
:101A3000F60120E030E0A9010E94FE0D882309F4A0
:101A40001BCE409819CEE4E2F1E01382128288EEB8
:101A500093E0A0E0B0E084839583A683B78385E01C
:101A600091E09183808385EC90E09587848784EC76
:101A700090E09787868780EC90E0918B808B81EC5B
:101A800090E0938B828B82EC90E0958B848B86EC3C
:101A900090E0978B868B118E128E138E148E089584
:101AA000A8E1B0E042E050E00C94630D0196272FCE
:101AB0000E94720D0C94710D0E94830D272F0C94BF
:101AC000840DDC01CB01FC01F999FECF06C0F2BD0B
:101AD000E1BDF89A319600B40D9241505040B8F7EC
:101AE0000895262FF999FECF92BD81BDF89A0197EE
:101AF00000B4021639F01FBA20BD0FB6F894FA9A56
:101B0000F99A0FBE0895262FF999FECF1FBA92BDFC
:101B100081BD20BD0FB6F894FA9AF99A0FBE0196CE
:101B200008955058BB27AA270E94A90D0C94230F93
:101B30000E94150F38F00E941C0F20F039F49F3FCF
:101B400019F426F40C94120F0EF4E095E7FB0C94B4
:101B50000C0FE92F0E94340F58F3BA17620773076E
:101B60008407950720F079F4A6F50C94560F0EF42F
:101B7000E0950B2EBA2FA02D0B01B90190010C019D
:101B8000CA01A0011124FF27591B99F0593F50F4B5
:101B9000503E68F11A16F040A22F232F342F44270D
:101BA000585FF3CF469537952795A795F040539505
:101BB000C9F77EF41F16BA0B620B730B840BBAF0D5
:101BC0009150A1F0FF0FBB1F661F771F881FC2F740
:101BD0000EC0BA0F621F731F841F48F48795779554
:101BE0006795B795F7959E3F08F0B0CF9395880F0E
:101BF00008F09927EE0F9795879508950E94E80EB3
:101C000008F481E008950E94170E0C94230F0E949F
:101C10001C0F58F00E94150F40F029F45F3F29F087
:101C20000C940C0F51110C94570F0C94120F0E942E
:101C3000340F68F39923B1F3552391F3951B550B9A
:101C4000BB27AA2762177307840738F09F5F5F4F8F
:101C5000220F331F441FAA1FA9F335D00E2E3AF0CE
:101C6000E0E832D091505040E695001CCAF72BD0E6
:101C7000FE2F29D0660F771F881FBB1F2617370737
:101C80004807AB07B0E809F0BB0B802DBF01FF2769
:101C900093585F4F3AF09E3F510578F00C940C0F2B
:101CA0000C94570F5F3FE4F3983ED4F386957795F5
:101CB0006795B795F7959F5FC9F7880F911D969522
:101CC000879597F90895E1E0660F771F881FBB1F7E
:101CD000621773078407BA0720F0621B730B840B2B
:101CE000BA0BEE1F88F7E09508950E947C0E689469
:101CF000B1110C94570F08950E943C0F88F09F5724
:101D000098F0B92F9927B751B0F0E1F0660F771F1F
:101D1000881F991F1AF0BA95C9F714C0B13091F015
:101D20000E94560FB1E008950C94560F672F782F3C
:101D30008827B85F39F0B93FCCF3869577956795DA
:101D4000B395D9F73EF490958095709561957F4F46
:101D50008F4F9F4F0895E89409C097FB3EF49095EC
:101D60008095709561957F4F8F4F9F4F9923A9F074
:101D7000F92F96E9BB279395F69587957795679503
:101D8000B795F111F8CFFAF4BB0F11F460FF1BC047
:101D90006F5F7F4F8F4F9F4F16C0882311F096E9DA
:101DA00011C0772321F09EE8872F762F05C0662388
:101DB00071F096E8862F70E060E02AF09A95660F41
:101DC000771F881FDAF7880F9695879597F90895FA
:101DD000990F0008550FAA0BE0E8FEEF161617063C
:101DE000E807F907C0F012161306E407F50798F0A4
:101DF000621B730B840B950B39F40A2661F0232BBD
:101E0000242B252B21F408950A2609F4A140A69538
:101E10008FEF811D811D089597F99F6780E870E01D
:101E200060E008959FEF80EC089500240A94161650
:101E3000170618060906089500240A9412161306B8
:101E4000140605060895092E0394000C11F4882346
:101E500052F0BB0F40F4BF2B11F460FF04C06F5F62
:101E60007F4F8F4F9F4F089557FD9058440F551F38
:101E700059F05F3F71F04795880F97FB991F61F00C
:101E80009F3F79F087950895121613061406551F83
:101E9000F2CF4695F1DF08C0161617061806991FEF
:101EA000F1CF86957105610508940895E894BB27E4
:101EB00066277727CB0197F908950E94E80E08F46A
:101EC0008FEF089516F00C941F100C94120F689465
:101ED0000C940C0F0E943C0FA8F39923C1F3AEF3AE
:101EE000DF93CF931F930F93FF92C92FDD27882392
:101EF0002AF02197660F771F881FDAF720E030E07D
:101F000040E85FEB9FE3883920F0803E38F021966F
:101F10008F770E94920DE8E6F0E004C00E94920DD7
:101F2000E5E9F0E00E942D108B01BE01EC01FB2ED3
:101F30006F5771097595771F880B990B0E94AD0E2D
:101F400028E132E741E35FE30E94C50FAF2D98011E
:101F5000AE01FF900F911F91CF91DF910E94A90DCB
:101F60000C94230F0E94C50F0C94230F0E94150F91
:101F700038F00E941C0F20F0952311F00C940C0FE8
:101F80000C94120F11240C94570F0E94340F70F30D
:101F9000959FC1F3950F50E0551F629FF001729F0E
:101FA000BB27F00DB11D639FAA27F00DB11DAA1F1D
:101FB000649F6627B00DA11D661F829F2227B00D6A
:101FC000A11D621F739FB00DA11D621F839FA00DF5
:101FD000611D221F749F3327A00D611D231F849F45
:101FE000600D211D822F762F6A2F11249F5750409C
:101FF0009AF0F1F088234AF0EE0FFF1FBB1F661F17
:10200000771F881F91505040A9F79E3F510580F0DF
:102010000C940C0F0C94570F5F3FE4F3983ED4F3ED
:10202000869577956795B795F795E7959F5FC1F783
:10203000FE2B880F911D9695879597F908959F3FE0
:1020400031F0915020F4879577956795B795880F73
:10205000911D9695879597F90895DF93CF931F93D8
:102060000F93FF92EF92DF927B018C01689406C080
:10207000DA2EEF010E94C50FFE01E894A59125918B
:10208000359145915591A6F3EF010E94A90DFE01EE
:102090009701A801DA9469F7DF90EF90FF900F9114
:1020A0001F91CF91DF910895991B79E004C0991F8A
:1020B000961708F0961B881F7A95C9F780950895A2
:1020C00097FB072E16F4009407D077FD09D00E94E5
:1020D0007A1007FC05D03EF4909581959F4F0895A6
:1020E000709561957F4F0895EE0FFF1F0590F49155
:1020F000E02D0994AA1BBB1B51E107C0AA1FBB1FFF
:10210000A617B70710F0A61BB70B881F991F5A9583
:10211000A9F780959095BC01CD010895F894FFCF63
:1021200001000000005B01BB00E800A8011901F7F5
:04213000000B01009F
:107E0000112484B714BE81FFF0D085E080938100F7
:107E100082E08093C00088E18093C10086E0809377
:107E2000C20080E18093C4008EE0C9D0259A86E02C
:107E300020E33CEF91E0309385002093840096BBD3
:107E4000B09BFECF1D9AA8958150A9F7CC24DD24C4
:107E500088248394B5E0AB2EA1E19A2EF3E0BF2EE7
:107E6000A2D0813461F49FD0082FAFD0023811F036
:107E7000013811F484E001C083E08DD089C08234E0
:107E800011F484E103C0853419F485E0A6D080C0E4
:107E9000853579F488D0E82EFF2485D0082F10E0AE
:107EA000102F00270E291F29000F111F8ED06801E7
:107EB0006FC0863521F484E090D080E0DECF843638
:107EC00009F040C070D06FD0082F6DD080E0C81688
:107ED00080E7D80618F4F601B7BEE895C0E0D1E017
:107EE00062D089930C17E1F7F0E0CF16F0E7DF06D8
:107EF00018F0F601B7BEE89568D007B600FCFDCFD4
:107F0000A601A0E0B1E02C9130E011968C91119780
:107F100090E0982F8827822B932B1296FA010C0160
:107F200087BEE89511244E5F5F4FF1E0A038BF0790
:107F300051F7F601A7BEE89507B600FCFDCF97BE46
:107F4000E89526C08437B1F42ED02DD0F82E2BD052
:107F50003CD0F601EF2C8F010F5F1F4F84911BD097
:107F6000EA94F801C1F70894C11CD11CFA94CF0C13
:107F7000D11C0EC0853739F428D08EE10CD085E9AC
:107F80000AD08FE07ACF813511F488E018D01DD067
:107F900080E101D065CF982F8091C00085FFFCCF94
:107FA0009093C60008958091C00087FFFCCF809118
:107FB000C00084FD01C0A8958091C6000895E0E648
:107FC000F0E098E1908380830895EDDF803219F02E
:107FD00088E0F5DFFFCF84E1DECF1F93182FE3DFCA
:107FE0001150E9F7F2DF1F91089580E0E8DFEE27F6
:047FF000FF270994CA
:027FFE00040479
:0400000300007E007B
:00000001FF