:100000000C9462000C948A000C948A000C948A0070
:100010000C948A000C948A000C948A000C948A0038
:100020000C948A000C948A000C948A000C948A0028
:100030000C948A000C94B8030C948A000C948A00E7
:100040000C946E030C948A000C943C030C941603DD
:100050000C948A000C948A000C948A000C948A00F8
:100060000C948A000C948A0008000000BE92244977
:10007000123EABAAAA2ABECDCCCC4C3E00000080DA
:10008000BEABAAAAAA3E00000000BF000000803F4D
:100090000000000000084178D3BB4387D1133D190D
:1000A0000E3CC3BD4282AD2B3E68EC8276BED98F3A
:1000B000E1A93E4C80EFFFBE01C4FF7F3F0000007E
:1000C0000000DF0311241FBECFEFD8E0DEBFCDBF9D
:1000D00022E0ACE2B1E001C01D92A136B207E1F727
:1000E00011E0A0E0B1E0E8EAF2E202C005900D9272
:1000F000AC32B107D9F710E0C2E6D0E004C02197D6
:10010000FE010E943811C136D107C9F70E941E04B2
:100110000C9452110C940000EEE7F1E0A089B18933
:1001200082E08C93A485B5851C92A685B7858FEC5B
:100130008C93108EA489B58986E08C93A289B389AB
:100140008C9180618C93A289B3898C9188608C9307
:10015000A289B3898C9180688C930288F389E02D01
:1001600080818F7D808308958A309105D8F4FC01C9
:10017000E454FF4F0C943811C600CA00CE00D300DF
:10018000D700D900DB00DD00DF00E10086E085B9A3
:1001900088E007C087E485B988EC03C085E085B9AD
:1001A00088E28BB9089585E085B988E8FACF84E4C0
:1001B000F2CF84E8F9CF84E8EACF86E0ECCF84E0A0
:1001C000E6CF84E0F1CFCF92DF92EF92FF920F93D0
:1001D0001F932FB7F894C0907A01D0907B01E090E4
:1001E0007C01F0907D012FBF6C0D7D1D8E1D9F1D2C
:1001F0004FB7F89400917A0110917B0120917C0116
:1002000030917D014FBF0C151D052E053F0528F0CF
:10021000601771078207930758F71F910F91FF909E
:10022000EF90DF90CF900895AF92BF92CF92DF9280
:10023000EF92FF920F931F93CF93DF936C017B019B
:100240008B01040F151FEB015E01AE18BF08C0172C
:10025000D10759F06991D601ED91FC910190F0819F
:10026000E02DC6010995892B79F7C501DF91CF9162
:100270001F910F91FF90EF90DF90CF90BF90AF90C4
:100280000895FC01538D448D252F30E0842F90E09C
:10029000821B930B541710F0CF9608950197089581
:1002A000FC01918D828D981761F0A28DAE0FBF2F4A
:1002B000B11D5D968C91928D9F5F9F73928F90E0A0
:1002C00008958FEF9FEF0895FC01918D828D98170F
:1002D00031F0828DE80FF11D858D90E008958FEF4C
:1002E0009FEF0895FC01918D228D892F90E0805C15
:1002F0009F4F821B91098F73992708958EE791E094
:100300000E94720121E0892B09F420E0822F0895D8
:1003100080E090E0892B29F00E947E0181110C94ED
:1003200000000895FC01A48DA80FB92FB11DA35A98
:10033000BF4F2C91848D90E001968F739927848F05
:10034000A689B7892C93A089B1898C918370806428
:100350008C93938D848D981306C00288F389E02DC9
:1003600080818F7D80830895EF92FF920F931F937A
:10037000CF93DF93EC0181E0888F9B8D8C8D981358
:100380001AC0E889F989808185FF15C09FB7F89464
:10039000EE89FF896083E889F989808183708064B0
:1003A00080839FBF81E090E0DF91CF911F910F91FB
:1003B000FF90EF900895F62E0B8D10E00F5F1F4F0A
:1003C0000F731127E02E8C8D8E110CC00FB607FC19
:1003D000FACFE889F989808185FFF5CFCE010E94A7
:1003E0009201F1CFEB8DEC0FFD2FF11DE35AFF4F82
:1003F000F0829FB7F8940B8FEA89FB898081806235
:10040000CFCFCF93DF93EC01888D8823B9F0AA89F1
:10041000BB89E889F9898C9185FD03C0808186FDBF
:100420000DC00FB607FCF7CF8C9185FFF2CF80810E
:1004300085FFEDCFCE010E949201E9CFDF91CF91F0
:1004400008958E50806480937C0080917A0080644F
:1004500080937A0080917A0086FDFCCF80917800AD
:100460009091790008953FB7F8948091320190916E
:100470003301A0913401B091350126B5A89B05C088
:100480002F3F19F00196A11DB11D3FBFBA2FA92F13
:10049000982F8827BC01CD01620F711D811D911D10
:1004A00042E0660F771F881F991F4A95D1F708957C
:1004B000809165018068809365018091650180620B
:1004C0008093650180915C018130C9F48091650160
:1004D00082608093650180916501806180936501F0
:1004E00080916501886080936501809165018460D9
:1004F0008093650180915B01826080935B01089528
:10050000FB018230910591F1039709F45CC06A30D8
:100510007105D0F4E257FD4F0C94381198029C02FB
:10052000A002A502A902AB02AE02B002B202B4025E
:1005300086E085B984E007C087E485B984EC03C010
:1005400085E085B984E28BB9089585E085B984E8B2
:10055000FACF84E4F2CF84E885B9F5CF84E8E9CF17
:1005600086E0EBCF84E0F8CF84E0F0CF6A3071050D
:1005700058F7E354FD4F0C943811C702CB02CF0259
:10058000D302D702D902DB02DD02DF02E10282E000
:1005900085B988E0D8CF83E485B988ECD4CF81E0F1
:1005A00085B988E2D0CF81E085B988E8CCCF80E4F6
:1005B000F3CF80E8F9CF80E8EBCF82E0EDCF15B83C
:1005C000E8CF15B8F2CF6B30710508F0BDCFE5511B
:1005D000FD4F0C943811F602FA02FE0202030603E4
:1005E00008030A030C030E031003120386E085B907
:1005F00080E1A9CF87E485B980EDA5CF85E085B9F5
:1006000080E3A1CF85E085B980E99DCF84E4F3CF75
:1006100084E8F9CF84E8EBCF86E0EDCF84E0E7CF44
:1006200084E0F1CF85EC85B980EF8DCF1F920F92DA
:100630000FB60F9211242F933F934F935F936F93B5
:100640007F938F939F93AF93BF93EF93FF938EE727
:1006500091E00E949201FF91EF91BF91AF919F9124
:100660008F917F916F915F914F913F912F910F905B
:100670000FBE0F901F9018951F920F920FB60F92FA
:1006800011242F938F939F93EF93FF93E0918E010B
:10069000F0918F018081E0919401F091950182FDAC
:1006A0001BC09081809197018F5F8F73209198017B
:1006B000821741F0E0919701F0E0E258FE4F958FEC
:1006C00080939701FF91EF919F918F912F910F90C0
:1006D0000FBE0F901F9018958081F4CF1F920F923C
:1006E0000FB60F9211242F933F938F939F93AF9345
:1006F000BF9380917A0190917B01A0917C01B09190
:100700007D013091310123E0230F2D3758F50196FB
:10071000A11DB11D2093310180937A0190937B013B
:10072000A0937C01B0937D018091320190913301BF
:10073000A0913401B09135010196A11DB11D8093A6
:10074000320190933301A0933401B0933501BF91EE
:10075000AF919F918F913F912F910F900FBE0F906E
:100760001F90189526E8230F0296A11DB11DD2CF28
:100770001F920F920FB60F9211242F933F934F9316
:100780005F936F937F938F939F93AF93BF93EF93F9
:10079000FF93E0913C01F0913D010995FF91EF91AC
:1007A000BF91AF919F918F917F916F915F914F9189
:1007B0003F912F910F900FBE0F901F901895EEE76D
:1007C000F1E01382128288EE93E0A0E0B0E084832F
:1007D0009583A683B78385E091E09183808385EC40
:1007E00090E09587848784EC90E09787868780ECFB
:1007F00090E0918B808B81EC90E0938B828B82ECEC
:1008000090E0958B848B86EC90E0978B868B118E95
:10081000128E138E148EEBE1F2E016821782108690
:100820001186128613861486158616861786108AF8
:10083000118A128A138A148A158A0895789484B5C5
:10084000826084BD84B5816084BD85B5826085BDCC
:1008500085B5816085BD80916E00816080936E005A
:10086000109281008091810082608093810080914C
:1008700081008160809381008091800081608093FD
:1008800080008091B10084608093B1008091B000BD
:1008900081608093B00080917A00846080937A00B8
:1008A00080917A00826080937A0080917A008160E2
:1008B00080937A0080917A00806880937A00109209
:1008C000C10010925D0210925E0210925F021092BF
:1008D000600210921D0210921E0210921F021092CE
:1008E000200268EB7BE080E090E00E94E3000E9441
:1008F00033024B015C01F8EECF2EF3E0DF2EE12C4A
:10090000F12C0E943302681979098A099B09683E13
:10091000734081059105A8F321E0C21AD108E108CE
:10092000F10888EE880E83E0981EA11CB11CC1144A
:10093000D104E104F10429F70E948C002FB7F89448
:1009400080917A0190917B01A0917C01B0917D0111
:100950002FBF80931D0290931E02A0931F02B0939D
:10096000200240E150E063E171E08EE791E00E94F7
:1009700014016AE070E080E090E00E94E300C1E0D2
:10098000C09331022FB7F89480917A0190917B0146
:10099000A0917C01B0917D012FBF80931D029093A7
:1009A0001E02A0931F02B093200246E050E064E2D2
:1009B00071E08EE791E00E94140184B18F6C84B9DC
:1009C000389A8AB18C6F8AB9409A8BB18BB91092E0
:1009D000800080E18093810082E080933A018FB7AC
:1009E00080933B01F89488EC92E3909339018093D3
:1009F0003801909387008093860080913B018FBFE0
:100A000080918100887F8093810090918100209166
:100A10003A01922B9093810088E592E090933D01FA
:100A200080933C01C0936F0080918100822B809362
:100A300081000E948C0085E10E942102BC01990F77
:100A4000880B990B0E94200E60936A0170936B01D2
:100A500080936C0190936D018FE00E942102BC0194
:100A6000990F880B990B0E94200E6093760170936A
:100A7000770180937801909379016091760170916C
:100A80007701809178019091790120E030E040EA8F
:100A900050E40E947F0E20E030E040E85AE30E94DC
:100AA0007F0E2DEC3CEC4CE45EE30E94EB0F609378
:100AB000720170937301809374019093750120917A
:100AC0006A0130916B0140916C0150916D0160E0C1
:100AD00070E080E894E40E94EB0F20E030E040E812
:100AE0005FE30E947E0F20E030E44CE156E40E9478
:100AF0007F0E0E949B106B017C0128E635E14CE8DB
:100B000057E30E947F0EA70196010E947F0EA70166
:100B100096010E947F0E4B015C0127E63AEA40E80D
:100B20005BEBC701B6010E947F0E25E834E74CEC71
:100B30005CE30E947F0F9B01AC01C501B4010E94E0
:100B40007F0F9B01AC0160E070E080E89FE30E94B2
:100B5000EB0F23E333E948E853E40E947E0F6093F0
:100B6000660170936701809368019093690181E049
:100B700090E00E943D0F909362018093610181E0BB
:100B800090E00E943D0F9093600180935F0184E1AB
:100B900090E00E943D0F90935E0180935D018EE195
:100BA00090E00E943D0F9093370180933601809131
:100BB0003601909137010197B1F18EEE92E090935A
:100BC00062018093610189EE92E0909360018093CD
:100BD0005F0189E090E090935E0180935D0181E088
:100BE00090E090933701809336016091610170919C
:100BF00062010E94490F60915F01709160018AE07B
:100C000090E00E94490F60915D0170915E0184E166
:100C100090E00E94490F60913601709137018EE19A
:100C200090E00E94490FE8EE2E2EE3E03E2E04E60F
:100C300010E0CAE0D0E05CECF52E64E0E62E9924EA
:100C4000939475EC872E8FE00E942102BC01990FCE
:100C5000880B990B0E94200E6093760170937701A8
:100C60008093780190937901609172017091730182
:100C7000809174019091750120E030E040E251E4F0
:100C80000E947F0E0E945D106B01809171018111A5
:100C900005C0109270015A985B985C988091710120
:100CA000813009F056C080910001882309F494C175
:100CB000C601B1010E9424115C0180917001813054
:100CC00009F079C180916E0190916F01892B09F033
:100CD00072C12B9A8BB18BB98FE99FE00197F1F725
:100CE00000C0000080917001813039F480916E0164
:100CF00090916F01892B09F468C1C501BE010E9462
:100D00002411CB01BE010E942411BC0182E090E0BD
:100D10000E948002EFE9FFE03197F1F700C0000088
:100D200080917001813039F480916E0190916F0152
:100D3000892B09F44EC1C501B8010E94241183E03A
:100D400090E00E9480028FE99FE00197F1F700C0D8
:100D5000000080917101823009F076C060916A01D3
:100D600070916B0180916C0190916D0120E030E0F9
:100D7000A9010E94190E882309F43DC16091660102
:100D800070916701809168019091690120E030E0E5
:100D900040E251E40E947F0E0E945D10CB01B10140
:100DA0000E9424115C0180917001813039F480919E
:100DB0006E0190916F01892B09F412C1C501BE012A
:100DC0000E942411BC0181E090E00E948002EFE9C2
:100DD000FFE03197F1F700C0000080917001813091
:100DE00039F480916E0190916F01892B09F4FCC058
:100DF000C501BE010E942411CB01BE010E94241135
:100E0000BC0182E090E00E9480028FE99FE00197A0
:100E1000F1F700C0000080917001813039F48091B9
:100E20006E0190916F01892B09F4E2C0C501B801F0
:100E30000E94241183E090E00E948002EFE9FFE02D
:100E40003197F1F700C0000080917101833069F59E
:100E50008091650186FFD2C0809163019091640109
:100E6000019690936401809363018937910548F05E
:100E7000809165018F7B80936501109264011092CF
:100E8000630184E485B988E48BB98FE99FE0019719
:100E9000F1F700C0000084E885B984E28BB9EFE97E
:100EA000FFE03197F1F700C00000809171018430BC
:100EB00069F58091650186FF5AC180916301909127
:100EC00064010196909364018093630189379105D1
:100ED00048F0809165018F7B8093650110926401D9
:100EE0001092630186EC85B988E28BB9EFE9FFE0E7
:100EF0003197F1F700C0000084E885B984E28BB92E
:100F00008FE99FE00197F1F700C000008091710127
:100F1000853041F580915D0190915E018F5F94E491
:100F200095B99BB9EFE9FFE03197F1F700C00000F8
:100F30006AE00E941811B82E892F90E00E94B40038
:100F40008FE99FE00197F1F700C000006B2D70E082
:100F500083E090E00E948002EFE9FFE03197F1F733
:100F600000C00000FFE5CF16D1040CF0B8C15A98BC
:100F70005B985C981092700181E090E090936F0113
:100F800080936E0110925C0110927101409A2B982F
:100F90008091650187FFD8C1809165018F7780932B
:100FA000650180915C01813021F480917001811193
:100FB000A7C12B98C9C1C501BE010E942411BC0163
:100FC00081E090E00E94800287CE2B9A8BB18BB992
:100FD000A1CEF5B8EBB8B7CE5A985B985C98B9CE6D
:100FE0002B9A8BB18BB9F3CE2B9A8BB18BB90DCFDA
:100FF000F5B8EBB823CF1BB898B826CF2091610184
:1010000030916201C901885C910997FF59C048EC91
:10101000A42EB12CA21AB30A80917001813039F448
:1010200080916E0190916F01892B09F43FC085B8C2
:1010300080EF8BB98FE99FE00197F1F700C00000C6
:1010400080917001813031F480916E0190916F0137
:10105000892B79F1C501BE010E942411CB01BE018B
:101060000E942411BC0181E090E00E948002EFE91F
:10107000FFE03197F1F700C00000809170018130EE
:1010800031F480916E0190916F01892BB1F0C5010F
:10109000B8010E942411CB01BE010E9424110E94BC
:1010A000B4008FE99FE00197F1F7FDCE2B9A8BB149
:1010B000C0CF2B9A8BB18BB9DACFF5B8EBB8F1CFA3
:1010C000B1010E9424115C0180917001813039F4DA
:1010D00080916E0190916F01892B09F440C0C50188
:1010E000BE010E942411BC0181E090E00E948002B8
:1010F000EFE9FFE03197F1F700C000008091700147
:10110000813031F480916E0190916F01892B59F1FA
:10111000C501BE010E942411CB01BE010E94241111
:10112000BC0182E090E00E9480028FE99FE001977D
:10113000F1F700C0000080917001813039F4809196
:101140006E0190916F01892B09F4B7CFC501B801E9
:101150000E94241183E090E00E948002A2CF2B9A8B
:101160008BB18BB9C5CF2B9A8BB18BB9DECF2091C8
:101170005F0130916001C901885C910997FF5BC0F4
:1011800098ECA92EB12CA21AB30A8091700181307B
:1011900031F480916E0190916F01892BF1F185B846
:1011A00080EF8BB9EFE9FFE03197F1F700C0000065
:1011B00080917001813031F480916E0190916F01C6
:1011C000892B71F1C501BE010E942411CB01BE0122
:1011D0000E942411BC0181E090E00E9480028FE90E
:1011E0009FE00197F1F700C000008091700181300D
:1011F00031F480916E0190916F01892BA9F0C501A6
:10120000B8010E942411CB01BE010E942411BC012F
:1012100082E090E00E94800209C02B9A8BB1C1CF7E
:101220002B9A8BB18BB9DBCFF5B8EBB8EFE9FFE0C8
:101230003197F1F769CEB1010E9424115C018091D0
:101240007001813031F480916E0190916F01892B92
:10125000F1F1C501BE010E942411BC0181E090E0C2
:101260000E9480028FE99FE00197F1F700C0000023
:1012700080917001813031F480916E0190916F0105
:10128000892B49F1C501BE010E942411CB01BE0189
:101290000E942411BC0182E090E00E948002EFE9EC
:1012A000FFE03197F1F700C00000809170018130BC
:1012B00039F480916E0190916F01892B09F4B4CFBC
:1012C000C501B8010E94241183E090E0A3CF2B9ABE
:1012D0008BB18BB9C7CF2B9A8BB18BB9E0CF2FE5F0
:1012E000C216D10419F49092700152CE82E6C8164B
:1012F000D1040CF44DCE10926F0110926E0148CEC5
:1013000080917001813001F580916E0190916F01A3
:10131000892BD1F42B9A80913E0190913F01019647
:1013200090933F0180933E018536910568F02B989C
:101330001092700181E090E090936F0180936E01B4
:1013400010923F0110923E018091650185FF45C0DA
:10135000809165018F7D8093650186B18470809353
:101360004F0190914F0180914E019813D5C2809109
:101370004D018F5F80934D01882379F110924D01CB
:1013800080914E0182FDC2C280915B0185FD25C026
:1013900080915B01806280935B0110924C0180918F
:1013A0005C018F5F80935C01823010F010925C01D1
:1013B00080915C01882309F49EC2813071F480938E
:1013C0007101109257011092560110925101109222
:1013D000500110926F0110926E018091650184FF9F
:1013E0003DC0809165018F7E8093650186B18870D4
:1013F00080934B0190914B0180914A019813B3C2A5
:10140000809149018F5F80934901882339F11092BF
:10141000490180914A0183FDA0C280915B0184FD56
:101420001DC080915B01806180935B011092480137
:10143000809171018F5F80937101863010F09092DE
:10144000710180917101833009F47FC208F06BC291
:10145000813009F471C2823009F46EC28091650155
:1014600082FF63C0809165018B7F8093650186B1A7
:1014700080718093470190914701809146019813B4
:10148000F2C2809145018F5F80934501882309F462
:101490004CC0109245018091460184FDDEC28091CE
:1014A00044018F5F80934401883038F010924401EA
:1014B00080915B018B7F80935B0180915B0182FD5A
:1014C00034C080915B01846080935B011092440181
:1014D00080917101843009F45FC2853009F48FC2B4
:1014E000833019F510925A0181E090E00E943D0F7F
:1014F00090936201809361018091610190916201FA
:101500008F3B91050CF036C2809161019091620190
:101510000A969093620180936101609161017091DC
:10152000620181E090E00E94430F8091650183FF9A
:101530006FC080916501877F8093650186B180725D
:10154000809343019091430180914201981303C31A
:10155000809141018F5F80934101882309F458C035
:10156000109241018091420185FDEFC280914001BE
:101570008F5F80934001883038F010924001809155
:101580005B01877F80935B0180915B0183FD40C09D
:1015900080915B01886080935B0110924001809193
:1015A0007101843009F470C2853009F4A0C283301F
:1015B00079F510925A0181E090E00E943D0F9093DE
:1015C0006201809361018091610190916201893C87
:1015D00091050CF04FC280916101909162010A97D0
:1015E0009093620180936101809161019091620109
:1015F00097FF06C0E0E2F3E0F0936201E09361013F
:10160000609161017091620181E090E00E94430F5E
:101610008091650181FF42C1809165018D7F80933A
:10162000650180915801909159019C012F5F3F4FB6
:1016300030935901209358010B9708F4A5C060918D
:10164000760170917701809178019091790120E085
:1016500030E040EA50E40E947F0E20E030E040E8B5
:101660005AE30E947F0E2DEC3CEC4CE45EE30E94BA
:10167000EB0F6093720170937301809374019093E8
:1016800075018AE0D82E412C512C320185E10E944F
:101690002102BC01990F880B990B0E94200E9B011F
:1016A000AC01C301B2010E947F0F2B013C01DA940F
:1016B000D110ECCF20E030E040E251E40E94EB0F8B
:1016C00060936A0170936B0180936C0190936D013C
:1016D000109259011092580120916A0130916B01CA
:1016E00040916C0150916D0160E070E080E894E4FD
:1016F0000E94EB0F20E030E040E85FE30E947E0FA5
:1017000020E030E44CE156E40E947F0E0E949B10E2
:101710002B013C0128E635E14CE857E30E947F0E9F
:10172000A30192010E947F0EA30192010E947F0EED
:101730005B016C0127E63AEA40E85BEBC301B201CA
:101740000E947F0E25E834E74CEC5CE30E947F0F9B
:101750009B01AC01C601B5010E947F0F9B01AC014A
:1017600060E070E080E89FE30E94EB0F23E333E941
:1017700048E853E40E947E0F60936601709367010E
:1017800080936801909369014090660150906701D1
:10179000609068017090690181E090E00E943D0FC7
:1017A00090936201809361018AE090E00E943D0F76
:1017B0009093600180935F0184E190E00E943D0F6F
:1017C00090935E0180935D01D0905C01F1E0DF12A7
:1017D0005EC020E030E040E251E4C301B2010E946B
:1017E0007F0E0E945D10CB01B1010E9424118A3846
:1017F00022E092070CF4B6C1409A1092700121E0E9
:1018000030E030936F0120936E0125B12F6E25B922
:101810005A985B985C9810925C011092710120912B
:101820005701211134C07091560120915D01309112
:101830005E012F5F3F4F6CE0629FA001639F500DE0
:101840001124741715060CF49CC1409A1092700173
:1018500085B18F6E85B95A985B985C9810925C013F
:1018600010927101809150019091510101969093D5
:101870005101809350018A3A9D4249F410925101DE
:1018800010925001809156018F5F80935601809194
:101890005C01811103C0409A1092700180915B013C
:1018A00081FF1CC080915B018D7F80935B018091E3
:1018B0007101833041F080917101843021F0809179
:1018C0007101853059F480915A018F5F80935A01DC
:1018D000893C20F09092710110925A0180E090E0D2
:1018E000892B09F4B0C90E947E01882309F4A3C999
:1018F0000E940000A0C91092710110927001409ADC
:101900009092000185B18F6E85B967CD80915B01A2
:101910008F7D80935B0161CD80914F0180934E015B
:1019200010924D015ACD843081F0853009F096CD6A
:10193000809165018F7B0CC0809165018F7B8093C6
:1019400065015A985B985C9889CD809165018064A7
:101950008093650110925A01F4CF80915B018F7ED4
:1019600080935B017BCD80914B0180934A01109263
:10197000490174CD8091610190916201019690932B
:10198000620180936101809161019091620161E245
:1019900073E00E942411BDCD10925A018AE090E0BC
:1019A0000E943D0F9093600180935F0180915F01E1
:1019B000909160018F3B910584F480915F0190913B
:1019C00060010A969093600180935F0160915F01CE
:1019D000709160018AE090E0A6CD80915F019091C6
:1019E000600101969093600180935F0180915F0197
:1019F0009091600161E273E00E942411E3CF1092A4
:101A00005A011092560110925701109251011092F2
:101A1000500184E190E00E943D0F90935E0180931D
:101A20005D0180915D0190915E01019690935E0150
:101A300080935D0180915D0190915E016CE070E0AA
:101A40000E94241190935E0180935D0160915D017D
:101A500070915E0184E190E066CD80915B018B7FA7
:101A600080935B0162CD8091470180934601109283
:101A700045015BCD80916101909162010197909346
:101A8000620180936101BCCD10925A018AE090E01E
:101A90000E943D0F9093600180935F0180915F01F0
:101AA00090916001893C9105E4F480915F019091EF
:101AB00060010A979093600180935F0180915F01BC
:101AC0009091600197FF06C080E293E090936001DF
:101AD00080935F0160915F01709160018AE090E006
:101AE00095CD80915F01909160010197EFCF1092A9
:101AF0005A01109256011092570110925101109202
:101B0000500184E190E00E943D0F90935E0180932C
:101B10005D0180915D0190915E01019790935E015E
:101B200080935D0180915D0190915E0197FF06C0F9
:101B3000EBE0F0E0F0935E01E0935D0160915D0108
:101B400070915E0184E190E061CD80915B01877FBF
:101B500080935B015DCD809143018093420110929F
:101B6000410156CD9C01285532402233310508F001
:101B700056CED09270012B9A10926F0110926E0186
:101B80004ECE7091560120915D0130915E012F5F24
:101B90003F4F629FA001639F500D112474171506DB
:101BA0000CF060CE2091610130916201285C310916
:101BB0008217930794F080915401909155010196FA
:101BC00090935501809354014F9708F44BCE109297
:101BD000550110925401409A45CE20915F013091F9
:101BE0006001275C3109821793070CF03BCE80918E
:101BF00052019091530101969093530180935201A9
:101C00004F9708F42FCE1092530110925201609119
:101C10006A0170916B0180916C0190916D0120E0DF
:101C200030E0A9010E94190E882309F41BCE4098C8
:101C300019CE0E945B0E08F481E00895E89409C073
:101C400097FB3EF490958095709561957F4F8F4FEF
:101C50009F4F9923A9F0F92F96E9BB279395F69505
:101C6000879577956795B795F111F8CFFAF4BB0F83
:101C700011F460FF1BC06F5F7F4F8F4F9F4F16C0E7
:101C8000882311F096E911C0772321F09EE8872F71
:101C9000762F05C0662371F096E8862F70E060E02D
:101CA0002AF09A95660F771F881FDAF7880F9695A6
:101CB000879597F90895990F0008550FAA0BE0E84A
:101CC000FEEF16161706E807F907C0F012161306FE
:101CD000E407F50798F0621B730B840B950B39F43E
:101CE0000A2661F0232B242B252B21F408950A26A4
:101CF00009F4A140A6958FEF811D811D08950E94D2
:101D0000920E0C94030F0E94F50E38F00E94FC0E08
:101D100020F0952311F00C94EC0E0C94F20E11248B
:101D20000C94370F0E94140F70F3959FC1F3950F19
:101D300050E0551F629FF001729FBB27F00DB11D4F
:101D4000639FAA27F00DB11DAA1F649F6627B00DDF
:101D5000A11D661F829F2227B00DA11D621F739FC8
:101D6000B00DA11D621F839FA00D611D221F749FD6
:101D70003327A00D611D231F849F600D211D822F1D
:101D8000762F6A2F11249F5750409AF0F1F0882344
:101D90004AF0EE0FFF1FBB1F661F771F881F915071
:101DA0005040A9F79E3F510580F00C94EC0E0C9426
:101DB000370F5F3FE4F3983ED4F3869577956795A8
:101DC000B795F795E7959F5FC1F7FE2B880F911D9B
:101DD0009695879597F9089597F99F6780E870E041
:101DE00060E008959FEF80EC089500240A94161691
:101DF000170618060906089500240A9412161306F9
:101E0000140605060895092E0394000C11F4882386
:101E100052F0BB0F40F4BF2B11F460FF04C06F5FA2
:101E20007F4F8F4F9F4F089557FD9058440F551F78
:101E300059F05F3F71F04795880F97FB991F61F04C
:101E40009F3F79F087950895121613061406551FC3
:101E5000F2CF4695F1DF08C0161617061806991F2F
:101E6000F1CF86957105610508940895E894BB2724
:101E700066277727CB0197F90895A8E1B0E042E003
:101E800050E00C94500F0196272F0E945F0F0C9486
:101E90005E0F0E94700F272F0C94710FDC01CB0195
:101EA000FC01F999FECF06C0F2BDE1BDF89A31966A
:101EB00000B40D9241505040B8F70895262FF9997B
:101EC000FECF92BD81BDF89A019700B4021639F099
:101ED0001FBA20BD0FB6F894FA9AF99A0FBE08956A
:101EE000262FF999FECF1FBA92BD81BD20BD0FB636
:101EF000F894FA9AF99A0FBE019608955058BB27A4
:101F0000AA270E94960F0C94030F0E94F50E38F03A
:101F10000E94FC0E20F039F49F3F19F426F40C9433
:101F2000F20E0EF4E095E7FB0C94EC0EE92F0E9404
:101F3000140F58F3BA17620773078407950720F048
:101F400079F4A6F50C94360F0EF4E0950B2EBA2F0B
:101F5000A02D0B01B90190010C01CA01A0011124AF
:101F6000FF27591B99F0593F50F4503E68F11A165B
:101F7000F040A22F232F342F4427585FF3CF4695EC
:101F800037952795A795F0405395C9F77EF41F160E
:101F9000BA0B620B730B840BBAF09150A1F0FF0FD8
:101FA000BB1F661F771F881FC2F70EC0BA0F621FC4
:101FB000731F841F48F4879577956795B795F795B4
:101FC0009E3F08F0B0CF9395880F08F09927EE0F49
:101FD0009795879508950E94FF0F0C94030F0E9418
:101FE000FC0E58F00E94F50E40F029F45F3F29F0F6
:101FF0000C94EC0E51110C94370F0C94F20E0E94BD
:10200000140F68F39923B1F3552391F3951B550BE6
:10201000BB27AA2762177307840738F09F5F5F4FBB
:10202000220F331F441FAA1FA9F335D00E2E3AF0FA
:10203000E0E832D091505040E695001CCAF72BD012
:10204000FE2F29D0660F771F881FBB1F2617370763
:102050004807AB07B0E809F0BB0B802DBF01FF2795
:1020600093585F4F3AF09E3F510578F00C94EC0E78
:102070000C94370F5F3FE4F3983ED4F38695779541
:102080006795B795F7959F5FC9F7880F911D96954E
:10209000879597F90895E1E0660F771F881FBB1FAA
:1020A000621773078407BA0720F0621B730B840B57
:1020B000BA0BEE1F88F7E09508950E9464106894AB
:1020C000B1110C94370F08950E941C0F88F09F5790
:1020D00098F0B92F9927B751B0F0E1F0660F771F4C
:1020E000881F991F1AF0BA95C9F714C0B13091F042
:1020F0000E94360FB1E008950C94360F672F782FA9
:102100008827B85F39F0B93FCCF386957795679506
:10211000B395D9F73EF490958095709561957F4F72
:102120008F4F9F4F089516F00C94E3100C94F20E0D
:1021300068940C94EC0E0E941C0FA8F39923C1F331
:10214000AEF3DF93CF931F930F93FF92C92FDD2739
:1021500088232AF02197660F771F881FDAF720E07F
:1021600030E040E85FEB9FE3883920F0803E38F0B4
:1021700021968F770E947F0FE8E6F0E004C00E946E
:102180007F0FE5E9F0E00E94F1108B01BE01EC0148
:10219000FB2E6F5771097595771F880B990B0E945D
:1021A000200E28E132E741E35FE30E94920EAF2D5B
:1021B0009801AE01FF900F911F91CF91DF910E9486
:1021C000960F0C94030F9F3F31F0915020F48795A8
:1021D00077956795B795880F911D9695879597F98F
:1021E0000895DF93CF931F930F93FF92EF92DF92A7
:1021F0007B018C01689406C0DA2EEF010E94920EDA
:10220000FE01E894A5912591359145915591A6F34C
:10221000EF010E94960FFE019701A801DA9469F779
:10222000DF90EF90FF900F911F91CF91DF91089574
:10223000991B79E004C0991F961708F0961B881F18
:102240007A95C9F78095089597FB072E16F40094A8
:1022500007D077FD09D00E943E1107FC05D03EF45F
:10226000909581959F4F0895709561957F4F089542
:10227000EE0FFF1F0590F491E02D0994AA1BBB1BE4
:1022800051E107C0AA1FBB1FA617B70710F0A61B76
:10229000B70B881F991F5A95A9F780959095BC0197
:0822A000CD010895F894FFCF71
:1022A8000100000000B40114014101010272015053
:1022B800016401564D4450565F317C315F564D44A0
:0C22C80050560A00564D4450525F000072
:00000001FF
