:100000000C9462000C948A000C948A000C948A0070
:100010000C948A000C948A000C948A000C948A0038
:100020000C948A000C948A000C948A000C948A0028
:100030000C948A000C94C8030C948A000C948A00D7
:100040000C947E030C948A000C944C030C942603AD
:100050000C948A000C948A000C948A000C948A00F8
:100060000C948A000C948A0008000000BE92244977
:10007000123EABAAAA2ABECDCCCC4C3E00000080DA
:10008000BEABAAAAAA3E00000000BF000000803F4D
:100090000000000000084178D3BB4387D1133D190D
:1000A0000E3CC3BD4282AD2B3E68EC8276BED98F3A
:1000B000E1A93E4C80EFFFBE01C4FF7F3F0000007E
:1000C0000000EF0311241FBECFEFD8E0DEBFCDBF8D
:1000D00022E0ACE2B1E001C01D92AF35B207E1F71A
:1000E00011E0A0E0B1E0EEE9F0E202C005900D926F
:1000F000AC32B107D9F710E0C2E6D0E004C02197D6
:10010000FE010E943310C136D107C9F70E942E04A8
:100110000C944D100C940000ECE7F1E0A089B1893B
:1001200082E08C93A485B5851C92A685B7858FEC5B
:100130008C93108EA489B58986E08C93A289B389AB
:100140008C9180618C93A289B3898C9188608C9307
:10015000A289B3898C9180688C930288F389E02D01
:1001600080818F7D808308958A309105D8F4FC01C9
:10017000E454FF4F0C943310C600CA00CE00D300E5
:10018000D700D900DB00DD00DF00E10086E085B9A3
:1001900088E007C087E485B988EC03C085E085B9AD
:1001A00088E28BB9089585E085B988E8FACF84E4C0
:1001B000F2CF84E8F9CF84E8EACF86E0ECCF84E0A0
:1001C000E6CF84E0F1CFCF92DF92EF92FF920F93D0
:1001D0001F932FB7F894C0907801D0907901E090E8
:1001E0007A01F0907B012FBF6C0D7D1D8E1D9F1D30
:1001F0004FB7F894009178011091790120917A011C
:1002000030917B014FBF0C151D052E053F0528F0D1
:10021000601771078207930758F71F910F91FF909E
:10022000EF90DF90CF900895AF92BF92CF92DF9280
:10023000EF92FF920F931F93CF93DF936C017B019B
:100240008B01040F151FEB015E01AE18BF08C0172C
:10025000D10759F06991D601ED91FC910190F0819F
:10026000E02DC6010995892B79F7C501DF91CF9162
:100270001F910F91FF90EF90DF90CF90BF90AF90C4
:100280000895FC01538D448D252F30E0842F90E09C
:10029000821B930B541710F0CF9608950197089581
:1002A000FC01918D828D981761F0A28DAE0FBF2F4A
:1002B000B11D5D968C91928D9F5F9F73928F90E0A0
:1002C00008958FEF9FEF0895FC01918D828D98170F
:1002D00031F0828DE80FF11D858D90E008958FEF4C
:1002E0009FEF0895FC01918D228D892F90E0805C15
:1002F0009F4F821B91098F73992708958CE791E096
:100300000E94720121E0892B09F420E0822F0895D8
:1003100080E090E0892B29F00E947E0181110C94ED
:1003200000000895FC01A48DA80FB92FB11DA35A98
:10033000BF4F2C91848D90E001968F739927848F05
:10034000A689B7892C93A089B1898C918370806428
:100350008C93938D848D981306C00288F389E02DC9
:1003600080818F7D80830895EF92FF920F931F937A
:10037000CF93DF93EC0181E0888F9B8D8C8D981358
:100380001AC0E889F989808185FF15C09FB7F89464
:10039000EE89FF896083E889F989808183708064B0
:1003A00080839FBF81E090E0DF91CF911F910F91FB
:1003B000FF90EF900895F62E0B8D10E00F5F1F4F0A
:1003C0000F731127E02E8C8D8E110CC00FB607FC19
:1003D000FACFE889F989808185FFF5CFCE010E94A7
:1003E0009201F1CFEB8DEC0FFD2FF11DE35AFF4F82
:1003F000F0829FB7F8940B8FEA89FB898081806235
:10040000CFCFCF93DF93EC01888D8823B9F0AA89F1
:10041000BB89E889F9898C9185FD03C0808186FDBF
:100420000DC00FB607FCF7CF8C9185FFF2CF80810E
:1004300085FFEDCFCE010E949201E9CFDF91CF91F0
:1004400008958E50806480937C0080917A0080644F
:1004500080937A0080917A0086FDFCCF80917800AD
:100460009091790008953FB7F8948091320190916E
:100470003301A0913401B091350126B5A89B05C088
:100480002F3F19F00196A11DB11D3FBFBA2FA92F13
:10049000982F8827BC01CD01620F711D811D911D10
:1004A00042E0660F771F881F991F4A95D1F708957C
:1004B0008091650180688093650160916C01709105
:1004C0006D0180916E0190916F0120E030E048E174
:1004D00051E40E94890F87FD22C0809165018062EE
:1004E0008093650180915C018130C9F48091650140
:1004F00082608093650180916501806180936501D0
:1005000080916501886080936501809165018460B8
:100510008093650180915A01826080935A01089509
:10052000FB018230910591F1039709F45CC06A30B8
:100530007105D0F4E256FD4F0C943310A802AC02C2
:10054000B002B502B902BB02BE02C002C202C402BE
:1005500086E085B984E007C087E485B984EC03C0F0
:1005600085E085B984E28BB9089585E085B984E892
:10057000FACF84E4F2CF84E885B9F5CF84E8E9CFF7
:1005800086E0EBCF84E0F8CF84E0F0CF6A307105ED
:1005900058F7E353FD4F0C943310D702DB02DF0210
:1005A000E302E702E902EB02ED02EF02F10282E070
:1005B00085B988E0D8CF83E485B988ECD4CF81E0D1
:1005C00085B988E2D0CF81E085B988E8CCCF80E4D6
:1005D000F3CF80E8F9CF80E8EBCF82E0EDCF15B81C
:1005E000E8CF15B8F2CF6B30710508F0BDCFE550FC
:1005F000FD4F0C94331006030A030E031203160377
:1006000018031A031C031E032003220386E085B986
:1006100080E1A9CF87E485B980EDA5CF85E085B9D4
:1006200080E3A1CF85E085B980E99DCF84E4F3CF55
:1006300084E8F9CF84E8EBCF86E0EDCF84E0E7CF24
:1006400084E0F1CF85EC85B980EF8DCF1F920F92BA
:100650000FB60F9211242F933F934F935F936F9395
:100660007F938F939F93AF93BF93EF93FF938CE709
:1006700091E00E949201FF91EF91BF91AF919F9104
:100680008F917F916F915F914F913F912F910F903B
:100690000FBE0F901F9018951F920F920FB60F92DA
:1006A00011242F938F939F93EF93FF93E0918C01ED
:1006B000F0918D018081E0919201F091930182FD92
:1006C0001BC09081809195018F5F8F73209196015F
:1006D000821741F0E0919501F0E0E458FE4F958FCC
:1006E00080939501FF91EF919F918F912F910F90A2
:1006F0000FBE0F901F9018958081F4CF1F920F921C
:100700000FB60F9211242F933F938F939F93AF9324
:10071000BF938091780190917901A0917A01B09175
:100720007B013091310123E0230F2D3758F50196DD
:10073000A11DB11D2093310180937801909379011F
:10074000A0937A01B0937B018091320190913301A3
:10075000A0913401B09135010196A11DB11D809386
:10076000320190933301A0933401B0933501BF91CE
:10077000AF919F918F913F912F910F900FBE0F904E
:100780001F90189526E8230F0296A11DB11DD2CF08
:100790001F920F920FB60F9211242F933F934F93F6
:1007A0005F936F937F938F939F93AF93BF93EF93D9
:1007B000FF93E0913C01F0913D010995FF91EF918C
:1007C000BF91AF919F918F917F916F915F914F9169
:1007D0003F912F910F900FBE0F901F901895ECE74F
:1007E000F1E01382128288EE93E0A0E0B0E084830F
:1007F0009583A683B78385E091E09183808385EC20
:1008000090E09587848784EC90E09787868780ECDA
:1008100090E0918B808B81EC90E0938B828B82ECCB
:1008200090E0958B848B86EC90E0978B868B118E75
:10083000128E138E148EE9E1F2E016821782108672
:100840001186128613861486158616861786108AD8
:10085000118A128A138A148A158A0895789484B5A5
:10086000826084BD84B5816084BD85B5826085BDAC
:1008700085B5816085BD80916E00816080936E003A
:10088000109281008091810082608093810080912C
:1008900081008160809381008091800081608093DD
:1008A00080008091B10084608093B1008091B0009D
:1008B00081608093B00080917A00846080937A0098
:1008C00080917A00826080937A0080917A008160C2
:1008D00080937A0080917A00806880937A001092E9
:1008E000C10010925B0210925C0210925D021092A5
:1008F0005E0210921B0210921C0210921D021092B6
:100900001E0268EB7BE080E090E00E94E3000E9422
:1009100033024B015C0168EEC62E63E0D62EE12C5B
:10092000F12C0E943302681979098A099B09683EF3
:10093000734081059105A8F321E0C21AD108E108AE
:10094000F10888EE880E83E0981EA11CB11CC1142A
:10095000D104E104F10429F70E948C002FB7F89428
:100960008091780190917901A0917A01B0917B01F9
:100970002FBF80931B0290931C02A0931D02B09383
:100980001E0240E150E063E171E08CE791E00E94DB
:1009900014016AE070E080E090E00E94E300C1E0B2
:1009A000C0932F022FB7F89480917801909179012C
:1009B000A0917A01B0917B012FBF80931B0290938D
:1009C0001C02A0931D02B0931E0246E050E064E2B8
:1009D00071E08CE791E00E94140184B18F6C84B9BE
:1009E000389A8AB18C6F8AB9409A8BB18BB91092C0
:1009F000800080E18093810082E080933A018FB78C
:100A000080933B01F89488EC92E3909339018093B2
:100A10003801909387008093860080913B018FBFBF
:100A200080918100887F8093810090918100209146
:100A30003A01922B9093810088E592E090933D01DA
:100A400080933C01C0936F0080918100822B809342
:100A500081000E948C0085E10E942102BC01990F57
:100A6000880B990B0E94160D6093740170937501A9
:100A700080937601909377018FE00E942102BC0160
:100A8000990F880B990B0E94160D6093700170935B
:100A90007101809372019093730160917001709164
:100AA0007101809172019091730120E030E040EA81
:100AB00050E40E94750D20E030E040E85AE30E94C7
:100AC000750D2DEC3CEC4CE45EE30E94E10E60936E
:100AD0006C0170936D0180936E0190936F01209172
:100AE000740130917501409176015091770160E079
:100AF00070E080E894E40E94E10E20E030E040E8FD
:100B00005FE30E94740E20E030E44CE156E40E9462
:100B1000750D0E94960F6B017C0129E332EC4AE0CF
:100B200054E30E94750DA70196010E94750DA7015F
:100B300096010E94750D4B015C0129E03AEA47E8F5
:100B400059E3C701B6010E94750D2BE932E044E676
:100B50005AE30E94750E9B01AC01C501B4010E94CD
:100B6000750E9B01AC0160E070E080E89FE30E949D
:100B7000E10E23E333E948E853E40E94740E6093E6
:100B8000660170936701809368019093690181E029
:100B900090E00E94330E909362018093610181E0A6
:100BA00090E00E94330E9093600180935F0184E196
:100BB00090E00E94330E90935E0180935D018EE180
:100BC00090E00E94330E909337018093360180911C
:100BD0003601909137010197B1F18EEE92E090933A
:100BE00062018093610189EE92E0909360018093AD
:100BF0005F0189E090E090935E0180935D0181E068
:100C000090E090933701809336016091610170917B
:100C100062010E943F0E60915F01709160018AE065
:100C200090E00E943F0E60915D0170915E0184E151
:100C300090E00E943F0E60913601709137018EE185
:100C400090E00E943F0E48EE242E43E0342ECAE08E
:100C5000D0E054E6C52ED12C11E005EC20EFF22EA9
:100C600034E4E32E85E10E942102BC01990F880B38
:100C7000990B0E94160D6093740170937501809317
:100C80007601909377018FE00E942102BC01990FB9
:100C9000880B990B0E94160D60937001709371017F
:100CA000809372019093730160916C0170916D015A
:100CB00080916E0190916F0120E030E040E251E4BC
:100CC0000E94750D0E94530F3B0180916B018111B1
:100CD00005C010926A015A985B985C9880916B01EC
:100CE0008130E9F580910001882309F4FDC3C30137
:100CF000B1010E941F105C0180916A01C501BE0113
:100D00000E941F104B01BC0181E090E00E94900204
:100D10008FE99FE00197F1F700C0000080916A0120
:100D2000C401BE010E941F10BC0182E090E00E943D
:100D30009002EFE9FFE03197F1F700C000008091E9
:100D40006A01C501B6010E941F1083E090E00E9475
:100D500090028FE99FE00197F1F700C000008091B9
:100D60006B01823009F058C0609174017091750177
:100D7000809176019091770120E030E0A9010E94F6
:100D80000F0D882309F4B4C3609166017091670167
:100D9000809168019091690120E030E040E251E4E7
:100DA0000E94750D0E94530FCB01B1010E941F10CC
:100DB0005C0180916A01C501BE010E941F104B01B8
:100DC000BC0181E090E00E949002EFE9FFE03197E2
:100DD000F1F700C0000080916A01C401BE010E94C9
:100DE0001F10BC0182E090E00E9490028FE99FE01A
:100DF0000197F1F700C0000080916A01C501B601BA
:100E00000E941F1083E090E00E949002EFE9FFE053
:100E10003197F1F700C0000080916B01833061F5DC
:100E20008091650186FF67C38091630190916401A1
:100E3000019690936401809363018937910548F08E
:100E4000809165018F7B80936501109264011092FF
:100E50006301E5B888E48BB98FE99FE00197F1F76A
:100E600000C0000084E885B984E28BB9EFE9FFE0B7
:100E70003197F1F700C0000080916B01843069F573
:100E80008091650186FFA7C3809163019091640101
:100E9000019690936401809363018937910548F02E
:100EA000809165018F7B809365011092640110929F
:100EB000630186EC85B988E28BB9EFE9FFE03197F1
:100EC000F1F700C0000084E885B984E28BB98FE9AE
:100ED0009FE00197F1F700C0000080916B01853021
:100EE00039F580915D0190915E018F5FE5B8EBB8B7
:100EF000EFE9FFE03197F1F700C000006AE00E94DF
:100F00001310B82E892F90E00E94B4008FE99FE063
:100F10000197F1F700C000006B2D70E083E090E0D6
:100F20000E949002EFE9FFE03197F1F700C0000066
:100F3000FFE56F1671040CF0C4C35A985B985C9877
:100F400010926A0110925C0110926B01409A80919C
:100F5000650187FF1FC0809165018F7780936501D0
:100F600080916A01811101C02B9890916A019130A2
:100F700089F42B9A80913E018F5F80933E018536E4
:100F800048F080915B01811105C02B9810926A0195
:100F900090935B018091650185FF43C0809165015D
:100FA0008F7D8093650186B1847080934E0190910E
:100FB0004E0180914D019813A6C380914C018F5F23
:100FC00080934C01882369F110924C0180914D016E
:100FD00082FD93C380915A0185FD23C080915A01FF
:100FE000806280935A0110924B0180915C018F5F67
:100FF00080935C01823010F010925C0180915C0162
:10100000882309F46FC3813061F480936B011092DF
:101010005601109255011092500110924F011092FA
:101020005B018091650184FF3DC0809165018F7EE9
:101030008093650186B1887080934A0190914A013E
:1010400080914901981386C3809148018F5F8093F6
:101050004801882339F1109248018091490183FDAC
:1010600073C380915A0184FD1DC080915A01806133
:1010700080935A011092470180916B018F5F80939A
:101080006B01863010F010936B0180916B018330FF
:1010900009F452C308F03EC3813009F444C38230DE
:1010A00009F441C38091650182FF63C080916501AD
:1010B0008B7F8093650186B180718093460190910A
:1010C0004601809145019813C5C3809144018F5F0B
:1010D00080934401882309F44CC01092440180910C
:1010E000450184FDB1C3809143018F5F809343012B
:1010F000883038F01092430180915A018B7F8093A1
:101100005A0180915A0182FD34C080915A01846055
:1011100080935A011092430180916B01843009F44D
:1011200032C3853009F462C3833019F51092590136
:1011300081E090E00E94330E909362018093610100
:1011400080916101909162018F3B91050CF009C380
:1011500080916101909162010A969093620180935F
:101160006101609161017091620181E090E00E94F3
:10117000390E8091650183FF6FC080916501877F83
:101180008093650186B18072809342019091420103
:10119000809141019813D6C3809140018F5F809365
:1011A0004001882309F458C0109240018091410108
:1011B00085FDC2C380913F018F5F80933F018830DE
:1011C00038F010923F0180915A01877F80935A0135
:1011D00080915A0183FD40C080915A0188608093BC
:1011E0005A0110923F0180916B01843009F443C38E
:1011F000853009F473C3833079F51092590181E089
:1012000090E00E94330E909362018093610180917F
:10121000610190916201893C91050CF022C380919B
:101220006101909162010A9790936201809361013C
:10123000809161019091620197FF06C0E0E2F3E0C6
:10124000F0936201E093610160916101709162012C
:1012500081E090E00E94390E8091650181FF17C105
:10126000809165018D7F80936501809157019091F8
:1012700058019C012F5F3F4F309358012093570135
:10128000069708F47EC060917001709171018091A1
:1012900072019091730120E030E040EA50E40E9436
:1012A000750D20E030E040E85AE30E94750D2DEC0A
:1012B0003CEC4CE45EE30E94E10E60936C017093A1
:1012C0006D0180936E0190936F01109258011092FE
:1012D0005701209174013091750140917601509130
:1012E000770160E070E080E894E40E94E10E20E085
:1012F00030E040E85FE30E94740E20E030E44CE10F
:1013000056E40E94750D0E94960F4B015C0129E383
:1013100032EC4AE054E30E94750DA50194010E944D
:10132000750DA50194010E94750D2B013C0129E06A
:101330003AEA47E859E3C501B4010E94750D2BE96B
:1013400032E044E65AE30E94750E9B01AC01C301F2
:10135000B2010E94750E9B01AC0160E070E080E874
:101360009FE30E94E10E23E333E948E853E40E943F
:10137000740E609366017093670180936801909387
:1013800069018090660190906701A0906801B0901B
:10139000690181E090E00E94330E90936201809396
:1013A00061018AE090E00E94330E90936001809387
:1013B0005F0184E190E00E94330E90935E01809380
:1013C0005D0170905C01F1E07F125AC020E030E0D6
:1013D00040E251E4C501B4010E94750D0E94530F13
:1013E000CB01B1010E941F108A3822E092070CF451
:1013F000B0C2409A10926A0170925B0125B12F6EC3
:1014000025B95A985B985C9810925C0110926B0118
:1014100020915601211134C07091550120915D0138
:1014200030915E012F5F3F4F6CE0629FA001639F90
:10143000500D1124741715060CF499C2409A10929D
:101440006A0185B18F6E85B95A985B985C98109245
:101450005C0110926B0180914F01909150010196B7
:101460009093500180934F018A3A9D4249F4109223
:10147000500110924F01809155018F5F809355016B
:1014800080915C01811103C0409A10926A018091A1
:101490005A0181FF1CC080915A018D7F80935A01AF
:1014A00080916B01833041F080916B01843021F099
:1014B00080916B01853059F4809159018F5F809341
:1014C0005901893C20F010936B011092590180E082
:1014D00090E0892B09F4C6CB0E947E01882309F491
:1014E000BBCB0E940000B8CB5A985B985C9837CC75
:1014F0001BB818B991CC2091610130916201C901EA
:10150000885C910997FF35C098ECA92EB12CA21ADE
:10151000B30A80916A0105B9FBB88FE99FE0019792
:10152000F1F700C0000080916A01C501BE010E9470
:101530001F10CB01BE010E941F10BC0181E090E092
:101540000E949002EFE9FFE03197F1F700C0000040
:1015500080916A01C501B6010E941F10CB01BE0136
:101560000E941F100E94B4008FE99FE00197F1F7DD
:1015700081CCB1010E941F105C0180916A01C501FC
:10158000BE010E941F104B01BC0181E090E00E944F
:101590009002EFE9FFE03197F1F700C00000809181
:1015A0006A01C401BE010E941F10BC0182E090E0EC
:1015B0000E9490028FE99FE00197F1F700C00000C0
:1015C00080916A01C501B6010E941F1083E090E07E
:1015D0000E949002C9CF20915F0130916001C90142
:1015E000885C910997FF3DC088ECA82EB12CA21A07
:1015F000B30A80916A0105B9FBB8EFE9FFE03197C2
:10160000F1F700C0000080916A01C501BE010E948F
:101610001F10CB01BE010E941F10BC0181E090E0B1
:101620000E9490028FE99FE00197F1F700C000004F
:1016300020916A01C501B6010E941F10CB01BE01B5
:101640000E941F10211107C00E94B400EFE9FFE0C3
:101650003197F1F740CCBC0182E090E00E9490020B
:10166000F5CFB1010E941F105C0180916A01C50194
:10167000BE010E941F104B01BC0181E090E00E945E
:1016800090028FE99FE00197F1F700C00000809180
:101690006A01C401BE010E941F10BC0182E090E0FB
:1016A0000E949002EFE9FFE03197F1F700C00000DF
:1016B00080916A01C501B6010E941F1083E090E08D
:1016C000CDCF2FE56216710419F410936A013FCC57
:1016D00082E6681671040CF43ACC10926A011092FA
:1016E0005B0135CC10926B0110926A01409A109305
:1016F000000185B18F6E85B994CC80915A018F7DA0
:1017000080935A018ECC80914E0180934D011092AE
:101710004C0187CC843081F0853009F0C3CC8091B6
:1017200065018F7B0CC0809165018F7B8093650183
:101730005A985B985C98B6CC8091650180648093E0
:10174000650110925901F4CF80915A018F7E8093E8
:101750005A01A8CC80914A01809349011092480116
:10176000A1CC8091610190916201019690936201F8
:1017700080936101809161019091620161E273E067
:101780000E941F10EACC109259018AE090E00E945A
:10179000330E9093600180935F0180915F0190917F
:1017A00060018F3B910584F480915F01909160010D
:1017B0000A969093600180935F0160915F01709140
:1017C00060018AE090E0D3CC80915F01909160014C
:1017D00001969093600180935F0180915F019091E9
:1017E000600161E273E00E941F10E3CF1092590183
:1017F00010925501109256011092500110924F0113
:1018000084E190E00E94330E90935E0180935D012D
:1018100080915D0190915E01019690935E018093AD
:101820005D0180915D0190915E016CE070E00E942D
:101830001F1090935E0180935D0160915D01709136
:101840005E0184E190E093CC80915A018B7F80937C
:101850005A018FCC8091460180934501109244013A
:1018600088CC80916101909162010197909362010F
:1018700080936101E9CC109259018AE090E00E94C6
:10188000330E9093600180935F0180915F0190918E
:101890006001893C9105E4F480915F0190916001C1
:1018A0000A979093600180935F0180915F0190910E
:1018B000600197FF06C080E293E0909360018093FF
:1018C0005F0160915F01709160018AE090E0C2CC9D
:1018D00080915F01909160010197EFCF10925901C3
:1018E00010925501109256011092500110924F0122
:1018F00084E190E00E94330E90935E0180935D013D
:1019000080915D0190915E01019790935E018093BB
:101910005D0180915D0190915E0197FF06C0EBE053
:10192000F0E0F0935E01E0935D0160915D017091E4
:101930005E0184E190E08ECC80915A01877F809394
:101940005A018ACC8091420180934101109240015A
:1019500083CC9C01285532402233310528F4709203
:101960006A0110925B0154CD10926A0151CD7091C1
:10197000550120915D0130915E012F5F3F4F629FC5
:10198000A001639F500D1124741715060CF063CD50
:101990002091610130916201285C3109821793071F
:1019A00094F08091530190915401019690935401C9
:1019B000809353014F9708F44ECD1092540110922A
:1019C0005301409A48CD20915F0130916001275C1E
:1019D0003109821793070CF03ECD8091510190910F
:1019E0005201019690935201809351014F9708F450
:1019F00032CD109252011092510160917401709198
:101A00007501809176019091770120E030E0A90185
:101A10000E940F0D882309F41ECD40981CCD0E9412
:101A2000510D08F481E00895E89409C097FB3EF455
:101A300090958095709561957F4F8F4F9F4F99231B
:101A4000A9F0F92F96E9BB279395F6958795779599
:101A50006795B795F111F8CFFAF4BB0F11F460FF59
:101A60001BC06F5F7F4F8F4F9F4F16C0882311F0B1
:101A700096E911C0772321F09EE8872F762F05C0C5
:101A8000662371F096E8862F70E060E02AF09A9560
:101A9000660F771F881FDAF7880F9695879597F955
:101AA0000895990F0008550FAA0BE0E8FEEF1616EF
:101AB0001706E807F907C0F012161306E407F50742
:101AC00098F0621B730B840B950B39F40A2661F0B6
:101AD000232B242B252B21F408950A2609F4A14059
:101AE000A6958FEF811D811D08950E94880D0C948D
:101AF000F90D0E94EB0D38F00E94F20D20F09523B5
:101B000011F00C94E20D0C94E80D11240C942D0EA0
:101B10000E940A0E70F3959FC1F3950F50E0551F78
:101B2000629FF001729FBB27F00DB11D639FAA2732
:101B3000F00DB11DAA1F649F6627B00DA11D661F81
:101B4000829F2227B00DA11D621F739FB00DA11DA2
:101B5000621F839FA00D611D221F749F3327A00D5C
:101B6000611D231F849F600D211D822F762F6A2FF8
:101B700011249F5750409AF0F1F088234AF0EE0F5D
:101B8000FF1FBB1F661F771F881F91505040A9F78A
:101B90009E3F510580F00C94E20D0C942D0E5F3F9A
:101BA000E4F3983ED4F3869577956795B795F795C6
:101BB000E7959F5FC1F7FE2B880F911D969587953E
:101BC00097F9089597F99F6780E870E060E00895BD
:101BD0009FEF80EC089500240A9416161706180645
:101BE0000906089500240A94121613061406050621
:101BF0000895092E0394000C11F4882352F0BB0FB2
:101C000040F4BF2B11F460FF04C06F5F7F4F8F4F14
:101C10009F4F089557FD9058440F551F59F05F3F4F
:101C200071F04795880F97FB991F61F09F3F79F0FE
:101C300087950895121613061406551FF2CF469580
:101C4000F1DF08C0161617061806991FF1CF869502
:101C50007105610508940895E894BB2766277727E6
:101C6000CB0197F90895A8E1B0E042E050E00C9470
:101C7000460E0196272F0E94550E0C94540E0E947A
:101C8000660E272F0C94670EDC01CB01FC01F9993D
:101C9000FECF06C0F2BDE1BDF89A319600B40D92B8
:101CA00041505040B8F70895262FF999FECF92BDC4
:101CB00081BDF89A019700B4021639F01FBA20BD11
:101CC0000FB6F894FA9AF99A0FBE0895262FF9994B
:101CD000FECF1FBA92BD81BD20BD0FB6F894FA9A0F
:101CE000F99A0FBE019608955058BB27AA270E9463
:101CF0008C0E0C94F90D0E94EB0D38F00E94F20D41
:101D000020F039F49F3F19F426F40C94E80D0EF4FA
:101D1000E095E7FB0C94E20DE92F0E940A0E58F3C0
:101D2000BA17620773078407950720F079F4A6F5C0
:101D30000C942C0E0EF4E0950B2EBA2FA02D0B0157
:101D4000B90190010C01CA01A0011124FF27591B00
:101D500099F0593F50F4503E68F11A16F040A22F06
:101D6000232F342F4427585FF3CF46953795279577
:101D7000A795F0405395C9F77EF41F16BA0B620B76
:101D8000730B840BBAF09150A1F0FF0FBB1F661FBD
:101D9000771F881FC2F70EC0BA0F621F731F841F00
:101DA00048F4879577956795B795F7959E3F08F026
:101DB000B0CF9395880F08F09927EE0F97958795E8
:101DC00008950E94F50E0C94F90D0E94F20D58F042
:101DD0000E94EB0D40F029F45F3F29F00C94E20DD6
:101DE00051110C942D0E0C94E80D0E940A0E68F30C
:101DF0009923B1F3552391F3951B550BBB27AA27C4
:101E000062177307840738F09F5F5F4F220F331FFD
:101E1000441FAA1FA9F335D00E2E3AF0E0E832D0C5
:101E200091505040E695001CCAF72BD0FE2F29D0C8
:101E3000660F771F881FBB1F261737074807AB079A
:101E4000B0E809F0BB0B802DBF01FF2793585F4F0F
:101E50003AF09E3F510578F00C94E20D0C942D0E53
:101E60005F3FE4F3983ED4F3869577956795B795F1
:101E7000F7959F5FC9F7880F911D9695879597F9FC
:101E80000895E1E0660F771F881FBB1F6217730775
:101E90008407BA0720F0621B730B840BBA0BEE1F8A
:101EA00088F7E09508950E945A0F6894B1110C9438
:101EB0002D0E08950E94120E88F09F5798F0B92FAA
:101EC0009927B751B0F0E1F0660F771F881F991F6F
:101ED0001AF0BA95C9F714C0B13091F00E942C0ED7
:101EE000B1E008950C942C0E672F782F8827B85FE7
:101EF00039F0B93FCCF3869577956795B395D9F7C7
:101F00003EF490958095709561957F4F8F4F9F4FD0
:101F100008950E94510D08F48FEF089516F00C9467
:101F2000DE0F0C94E80D68940C94E20D0E94120EE2
:101F3000A8F39923C1F3AEF3DF93CF931F930F93CD
:101F4000FF92C92FDD2788232AF02197660F771F7C
:101F5000881FDAF720E030E040E85FEB9FE3883944
:101F600020F0803E38F021968F770E94750EE8E6CB
:101F7000F0E004C00E94750EE5E9F0E00E94EC0F6D
:101F80008B01BE01EC01FB2E6F5771097595771F10
:101F9000880B990B0E94160D28E132E741E35FE3BD
:101FA0000E94880DAF2D9801AE01FF900F911F91F7
:101FB000CF91DF910E948C0E0C94F90D9F3F31F070
:101FC000915020F4879577956795B795880F911D67
:101FD0009695879597F90895DF93CF931F930F9365
:101FE000FF92EF92DF927B018C01689406C0DA2E9B
:101FF000EF010E94880DFE01E894A591259135918D
:1020000045915591A6F3EF010E948C0EFE019701B8
:10201000A801DA9469F7DF90EF90FF900F911F917C
:10202000CF91DF910895991B79E004C0991F96170D
:1020300008F0961B881F7A95C9F78095089597FB3D
:10204000072E16F4009407D077FD09D00E943910AE
:1020500007FC05D03EF4909581959F4F08957095AB
:1020600061957F4F0895EE0FFF1F0590F491E02DCD
:102070000994AA1BBB1B51E107C0AA1FBB1FA617CF
:10208000B70710F0A61BB70B881F991F5A95A9F721
:0E20900080959095BC01CD010895F894FFCF86
:10209E000100000000B4011401410101027201505F
:1020AE00016401564D4450565F317C315F564D44AC
:0C20BE0050560A00564D4450525F00007E
:107E0000112484B714BE81FFF0D085E080938100F7
:107E100082E08093C00088E18093C10086E0809377
:107E2000C20080E18093C4008EE0C9D0259A86E02C
:107E300020E33CEF91E0309385002093840096BBD3
:107E4000B09BFECF1D9AA8958150A9F7CC24DD24C4
:107E500088248394B5E0AB2EA1E19A2EF3E0BF2EE7
:107E6000A2D0813461F49FD0082FAFD0023811F036
:107E7000013811F484E001C083E08DD089C08234E0
:107E800011F484E103C0853419F485E0A6D080C0E4
:107E9000853579F488D0E82EFF2485D0082F10E0AE
:107EA000102F00270E291F29000F111F8ED06801E7
:107EB0006FC0863521F484E090D080E0DECF843638
:107EC00009F040C070D06FD0082F6DD080E0C81688
:107ED00080E7D80618F4F601B7BEE895C0E0D1E017
:107EE00062D089930C17E1F7F0E0CF16F0E7DF06D8
:107EF00018F0F601B7BEE89568D007B600FCFDCFD4
:107F0000A601A0E0B1E02C9130E011968C91119780
:107F100090E0982F8827822B932B1296FA010C0160
:107F200087BEE89511244E5F5F4FF1E0A038BF0790
:107F300051F7F601A7BEE89507B600FCFDCF97BE46
:107F4000E89526C08437B1F42ED02DD0F82E2BD052
:107F50003CD0F601EF2C8F010F5F1F4F84911BD097
:107F6000EA94F801C1F70894C11CD11CFA94CF0C13
:107F7000D11C0EC0853739F428D08EE10CD085E9AC
:107F80000AD08FE07ACF813511F488E018D01DD067
:107F900080E101D065CF982F8091C00085FFFCCF94
:107FA0009093C60008958091C00087FFFCCF809118
:107FB000C00084FD01C0A8958091C6000895E0E648
:107FC000F0E098E1908380830895EDDF803219F02E
:107FD00088E0F5DFFFCF84E1DECF1F93182FE3DFCA
:107FE0001150E9F7F2DF1F91089580E0E8DFEE27F6
:047FF000FF270994CA
:027FFE00040479
:0400000300007E007B
:00000001FF